:100000000C9405010C9422010C9422010C94220101
:100010000C9422010C9422010C9422010C942201D4
:100020000C9422010C944D010C9422010C94220199
:100030000C9422010C9422010C9422010C942201B4
:100040000C9422010C9422010C9422010C942201A4
:100050000C942201202020D2E5F1F220EFE0ECFF09
:10006000F2E82020000020CEF8E8E1EAE020EFE00E
:10007000ECFFF2E820210000CFE0ECFFF2FC20E8EA
:10008000F1EFF0E0E2EDE0200000CDE5F220F4E059
:10009000E9EBEEE220746170202100002020202096
:1000A000C2FBE1E5F0E8F2E5202020200000C0419D
:1000B000C1A0C242C3A1C4E0C545A8A2C6A3C7A4AB
:1000C000C8A5C9A6CA4BCBA7CC4DCD48CE4FCFA80B
:1000D000D050D143D254D3A9D4AAD558D6E1D7AB66
:1000E000D8ACD9E2DAADDBAEDC62DDAFDEB0DFB1D9
:1000F000E061E1B2E2B3E3B4E4E3E565B8B5E6B6E6
:10010000E7B7E8B8E9B9EABAEBBBECBCEDBDEE6F16
:10011000EFBEF070F163F2BFF379F4E4F578F6E541
:10012000F7C0F8C1F9E6FAC2FBC3FCC4FDC5FEC6C0
:10013000FFC7CAE0F0F2E020EFE0ECFFF2E820EDCC
:10014000E5200000EFEEE4E4E5F0E6E8E2E0E5F2C9
:10015000205350490000CAE0F0F2E020ECEEEBF74B
:10016000E8F2212020200000CEE1FAE5EC20534403
:100170002DEAE0F0F2FB20200000EDE520EEEFF0AC
:10018000E5E4E5EBE5ED212020200000CEE1FAE5F5
:10019000EC2053442DEAE0F0F2FB20200000204642
:1001A00041542020EDE520EDE0E9E4E5EDE000003C
:1001B000202020CDE0E9E4E5ED204D425220202032
:1001C0000000D2E8EF20F42E20F1E8F1F2E5ECFB9C
:1001D0002020000046415431322D20EEF8E8E1EABB
:1001E000E0212020000046415431362D20EEEA2E39
:1001F000202020202020000046415433322D20EEC4
:10020000F8E8E1EAE0212020000011241FBECFE53C
:10021000D4E0DEBFCDBF11E0A0E6B0E0E2E9FEE34E
:1002200002C005900D92A831B107D9F712E0A8E1FC
:10023000B1E001C01D92A239B107E1F70E94150695
:100240000C94471F0C94000020ED37E040E951E08A
:10025000CA010197F1F721503040D1F7839906C0C8
:10026000819904C0829902C0849BF8CF0895F894C4
:100270001ABA17BA11BA14BA8B9889988A988C98B6
:10028000889A8FEF8BBB88BB82BB85BB83E083BF23
:1002900012BE81E089BF909808951F920F920FB609
:1002A0000F9211242F933F934F935F936F937F93FC
:1002B0008F939F93AF93BF93EF93FF9312BE809161
:1002C0001E01843009F44BC080911F01882309F07E
:1002D00042C0909881E080931F0180911E01882385
:1002E000E1F4809134012EE830E002C03595279585
:1002F0008A95E2F7209522BF80911C0190911D0103
:10030000181619060CF06BC080911C0190911D010C
:10031000019790931D0180931C0180911E018130F3
:1003200001F180911E01823059F180911E018330CC
:1003300009F43EC0FF91EF91BF91AF919F918F91D2
:100340007F916F915F914F913F912F910F900FBED1
:100350000F901F901895909A10921F01BECF909801
:10036000E9CF809134012BE230E002C0359527952A
:100370008A95E2F7209522BF82E080931E01DACFB2
:100380002091340180E390E002C0959587952A95ED
:10039000E2F7809582BF83E080931E0180E1809325
:1003A0002201109223011092210110922001C2CF4C
:1003B00030912201303170F1609120017091210162
:1003C00080911801909119016817790760F084E015
:1003D00080931E0110921B0110921A01ABCF81E095
:1003E00080931E01A7CF1092220180E090E00E942E
:1003F000570F809323018091200190912101019654
:10040000909321018093200190931B0180931A0106
:10041000309122014091230147FD14C02091340105
:1004200088E390E002C0959587952A95E2F780953C
:1004300082BF30FF03C0440F409323013F5F3093DE
:10044000220178CF2091340180E790E002C0959599
:1004500087952A95E2F7809582BFEBCF2F923F9246
:100460005F926F927F928F929F92AF92BF92CF9244
:10047000DF92EF92FF920F931F93CF93DF9328E8C1
:1004800033E140E951E0CA010197F1F721503040D2
:10049000D1F7EE24FF2445E3A42E41E0B42E30E64C
:1004A000832E30E0932E20E7622E27E1722E95E313
:1004B000592EC0E9D1E08DE6282E80E0382E88E163
:1004C00091E0B7010E941E17882309F493C06701C9
:1004D0000894C11CD11C2DB73EB7285030400FB630
:1004E000F8943EBF0FBE2DBFEDB7FEB73196ADB746
:1004F000BEB71296BC92AE92119793828282D58239
:10050000C4828091180190911901978386830E947B
:100510006F1C2DB73EB7285F3F4F0FB6F8943EBF14
:100520000FBE2DBFC5010E943A0712BE8091340153
:10053000D30102C0AA0FBB1F8A95E2F7B0931D0139
:10054000A0931C0110921E0110921F0110921B011A
:1005500010921A01789400E010E0F8940E94EF0ED7
:1005600080911E01843009F49EC0209118013091C1
:10057000190140911A0150911B0180911E0178943C
:10058000833009F439C0852D8A95F1F784993FC0ED
:10059000829B14C0F89420ED37E0CE010197F1F76B
:1005A00021503040D1F7829BFECF789420ED37E088
:1005B000CE010197F1F721503040D1F78399C8C09F
:1005C000819BCBCF20ED37E0CE010197F1F7215091
:1005D0003040D1F7E114F10409F038C0CC24DD2417
:1005E000F894760188E191E0B7010E941E178823F4
:1005F00009F06DCF90980DC085E70033180759F1C9
:100600000F5F1F4F852D8A95F1F7849BC1CFF8941A
:100610009098DF91CF911F910F91FF90EF90DF9015
:10062000CF90BF90AF909F908F907F906F905F9092
:100630003F902F90089520ED37E0CE010197F1F71C
:1006400021503040D1F7E114F10451F267010894D0
:10065000C108D108C5CFADB7BEB718970FB6F8948B
:10066000BEBF0FBEADBFEDB7FEB731961296BC92BE
:10067000AE92119793828282D582C482241B350B5D
:10068000378326830E946F1C2DB73EB7285F3F4FEC
:100690000FB6F8943EBF0FBE2DBFC5010E943A07AA
:1006A00000E010E070CF00D000D000D0EDB7FEB772
:1006B0003196ADB7BEB71296BC92AE921197338207
:1006C0002282D582C4820E946F1C2DB73EB72A5F5A
:1006D0003F4F0FB6F8943EBF0FBE2DBFC5010E941D
:1006E0003A078091180190911901449708F439C094
:1006F00064EF71E080E49CE90197F1F784997ACF87
:1007000040E050E0829B12C020ED37E0CE0101971F
:10071000F1F721503040D1F7829BFECF20ED37E03A
:10072000CE010197F1F721503040D1F783991CC0D9
:10073000819981CF4F5F5F4F4617570708F050CF21
:1007400080E49CE90197F1F7849BDCCF909861CF1E
:1007500020ED37E0CE010197F1F721503040D1F77D
:100760003FCF68EC70E0C6CF20ED37E0CE010197B7
:10077000F1F721503040D1F733CF2F923F924F9273
:100780005F926F927F928F929F92AF92BF92CF9221
:10079000DF92EF92FF920F931F93CF93DF9384E545
:1007A00090E00E941C081FEF442455243201BB2412
:1007B000C5E3D1E059E7252E50E0352EC301B20143
:1007C0002FEF30E040E050E00E944D1C822E2117B8
:1007D000E9F000D000D000D0EDB7FEB73196ADB74C
:1007E000BEB71296DC93CE93119733822282248374
:1007F00015820E946F1C8DB79EB706960FB6F894AF
:100800009EBF0FBE8DBFCE010E94AB07EE24FF241A
:1008100087014B2D4E0DC801B7010E94710F0E9438
:10082000EF0E0894E11CF11C011D111D90E0E9166A
:1008300090E0F90692E0090790E0190751F7CC24FF
:10084000DD2476010FC00894C11CD11CE11CF11CF1
:1008500090E0C91690E0D90692E0E90690E0F9062A
:1008600009F454C09B2C9C0CC701B6010E94570F81
:10087000A82E0E94EF0EA91431F386E690E00E94A4
:100880001C08ADB7BEB71A970FB6F894BEBF0FBE1F
:10089000ADBFEDB7FEB7319605E311E012961C939C
:1008A0000E93119789E890E093838283D582C48266
:1008B00096821782A08611860E946F1C8DB79EB704
:1008C0000A960FB6F8949EBF0FBE8DBFC8010E9456
:1008D000AB0720E533EC40E951E0CA010197F1F79D
:1008E00021503040D1F7DF91CF911F910F91FF90B0
:1008F000EF90DF90CF90BF90AF909F908F907F90C0
:100900006F905F904F903F902F90089584E690E015
:10091000A0E0B0E0480E591E6A1E7B1EB394182D4D
:1009200090E0491694E6590690E0690690E0790651
:1009300009F044CF88E790E00E941C088EE990E01F
:100940000E94AB0720E335E740E951E0CA01019777
:10095000F1F721503040D1F7C6CF2F923F924F92FE
:100960005F926F927F928F929F92AF92BF92CF923F
:10097000DF92EF92FF920F931F93DF93CF93CDB748
:10098000DEB729970FB6F894DEBF0FBECDBF0E9429
:10099000CE19882309F41AC181E090E090932501D3
:1009A0008093240131E0E32EF12CAA2422E0622E70
:1009B000712C6C0E7D1E96E0492E512C4C0E5D1E46
:1009C0004E010894811C911C8FE9282E80E0382E5E
:1009D00000E9C02E01E0D02E85E391E0B301A20131
:1009E00094010E941315882309F09EC089818823F1
:1009F00009F076C08DB79EB708970FB6F8949EBFE2
:100A00000FBE8DBFEDB7FEB7319685E391E0ADB770
:100A1000BEB712969C938E93119733822282A48242
:100A20001582F782E6820E946F1CADB7BEB718969A
:100A30000FB6F894BEBF0FBEADBF85E391E00E9434
:100A40003A0720ED37E0C6010197F1F72150304019
:100A5000D1F783997DC081998EC0849BFACF89811B
:100A6000882309F466C0F4E0FA1540F0EA2DF0E0BE
:100A7000EE0FFF1FEC5DFE4FF182E08287FD8DC01F
:100A8000A39494E09A1508F459C00A2D10E0000FC1
:100A9000111FF801EC5DFE4FA1E0B0E0B183A0832F
:100AA0006A817B818C819D810E946E1AF801EC5DC8
:100AB000FE4F80819181029708F47BC001E010E035
:100AC0007F0108C00F5F1F4FF701808191810817D8
:100AD000190720F40E942E198823A1F778017CCFF2
:100AE000EDB7FEB738970FB6F894FEBF0FBEEDBF57
:100AF000319685E391E0ADB7BEB712969C938E9385
:100B00001197A0EBB0E0B383A283A4821582F78291
:100B1000E6820E946F1CEDB7FEB738960FB6F894C8
:100B2000FEBF0FBEEDBF89CF85E391E00E94AB070A
:100B30005DCF0E942E02870178014ECF6A817B81B2
:100B40008C819D810E946E1A01E010E0780144CFF3
:100B5000829B36C01AE0B12E870107C001501040B9
:100B60008E2D801B8B1508F0B9CF0E948E1888231C
:100B7000A9F7780131CF829B20C0BAE0BB2E870154
:100B80000E942E19882309F4A9CF0F5F1F4F802FD1
:100B90008E198B15A8F378011FCFAA20A1F0AA9473
:100BA0006A817B818C819D810E946E1A84E08A1506
:100BB000B8F501E010E078010FCFBB24B394DFCF8C
:100BC000BB24B394C9CF00E010E06ACF8AE890E07C
:100BD0000E941C088EE990E00E94AB0780E29EE430
:100BE00020E931E0F9013197F1F70197D9F729961A
:100BF0000FB6F894DEBF0FBECDBFCF91DF911F912E
:100C00000F91FF90EF90DF90CF90BF90AF909F90AB
:100C10008F907F906F905F904F903F902F900895AE
:100C20000A2D10E0000F111F41CF1F93CF93DF93C8
:100C30000E9437010E94E00E0E94F3060E947F0B83
:100C40000E94171210E0C0E9D1E08CE990E00E9408
:100C50001C08112399F1113009F444C0123009F431
:100C60004BC0133049F4A5E3B1E0E8EFF0E082E1D6
:100C700001900D928150E1F785E391E00E94AB076E
:100C800028E833E1CE010197F1F721503040D1F748
:100C900083993CC081993EC0849BFACF1123E9F02F
:100CA0001130B1F01230A1F0133079F60E94BD037B
:100CB0008CE990E00E941C08112369F6A5E3B1E0DD
:100CC000E2ECF0E082E101900D928150E1F7D4CFA7
:100CD000109334010E94AD04B8CF109234010E94E9
:100CE000AD04B3CFA5E3B1E0E4EDF0E082E1019023
:100CF0000D928150E1F7C0CFA5E3B1E0E6EEF0E060
:100D000082E101900D928150E1F7B6CF112331F0CD
:100D100011509BCF133021F01F5F97CF13E095CF79
:100D200010E093CFAD98AC98AB98AA98AE9A45B323
:100D3000282F26952695269530E021703070220FB9
:100D4000331F22953295307F3227207F3227422B66
:100D500045BB45B3282F2695269530E0217030708D
:100D600022953295307F3227207F3227422B45BB98
:100D700045B3282F269530E021703070220F331FA5
:100D8000220F331F220F331F422B45BB25B390E0A8
:100D900081709070880F991F880F991F282B25BB91
:100DA00080E991E0FC013197F1F7AE980197F1F7F6
:100DB00008951F93182FAF9A82958F700E94920604
:100DC000812F8F700E9492061F9108951F93182FF4
:100DD000AF9882958F700E949206812F8F700E942B
:100DE00092061F9108950F931F93A79AA69AA59A0A
:100DF000A49AA39AA29A28EC30E040E951E0CA01F3
:100E00000197F1F721503040D1F7AF9883E00E946D
:100E1000920680E29EE40197F1F783E00E94920639
:100E200080E293E00197F1F783E00E94920682E06E
:100E30000E9492068CE20E94E60600EA1FE0C801CA
:100E40000197F1F788E00E94E606C8010197F1F7E3
:100E500081E00E94E606C8010197F1F786E00E9452
:100E6000E6068CE00E94E606C8010197F1F71F91A3
:100E70000F910895AF92BF92CF92DF92EF92FF92BF
:100E80000F931F93DF93CF93CDB7DEB760970FB665
:100E9000F894DEBF0FBECDBFE82E192F80E80E9468
:100EA000E60680E991E00197F1F76E010894C11C14
:100EB000D11C8E2D912F9C01A901D601E1E1AE2E0E
:100EC000B12CAC0EBD1EFA0120812C9380E090E085
:100ED00004C002968438910559F0FC01E255FF4F99
:100EE000E4912E17B1F781559F4FFC0184918C93AB
:100EF0004F5F5F4F1196AA15BB0529F78E2D912FD5
:100F00009C018901F02EFE18F80180818823F9F0F8
:100F1000F60181916F010E94D9060F5F1F4FAC143B
:100F2000BD0481F760960FB6F894DEBF0FBECDBF4B
:100F3000CF91DF911F910F91FF90EF90DF90CF90B5
:100F4000BF90AF90089580E20E94D906F394FFE02D
:100F5000FF15C8F7E7CFAF92BF92CF92DF92EF9223
:100F6000FF920F931F93DF93CF93CDB7DEB76097B8
:100F70000FB6F894DEBF0FBECDBFE82E192F88EA5A
:100F80000E94E60680E991E00197F1F76E0108946E
:100F9000C11CD11C8E2D912F9C01A901D601F1E11C
:100FA000AF2EB12CAC0EBD1EFA0120812C9380E037
:100FB00090E004C002968438910559F0FC01E25596
:100FC000FF4FE4912E17B1F781559F4FFC0184919B
:100FD0008C934F5F5F4F1196AA15BB0529F78E2D95
:100FE000912F9C018901F02EFE18F8018081882341
:100FF000F9F0F60181916F010E94D9060F5F1F4F32
:10100000AC14BD0481F760960FB6F894DEBF0FBE36
:10101000CDBFCF91DF911F910F91FF90EF90DF90A7
:10102000CF90BF90AF90089580E20E94D906F394CC
:10103000FFE0FF15C8F7E7CFAF92BF92CF92DF92E4
:10104000EF92FF920F931F93DF93CF93CDB7DEB74D
:1010500060970FB6F894DEBF0FBECDBFE82E192FF4
:1010600080E80E94E60680E991E00197F1F76E01C1
:101070000894C11CD11C8E2D912FFC01AF01D6010B
:1010800001E1A02EB12CAC0EBD1EFA0124912C93CF
:1010900080E090E004C002968438910559F0FC018C
:1010A000E255FF4FE4912E17B1F781559F4FFC0198
:1010B00084918C934F5F5F4F1196AA15BB0529F75A
:1010C0008E2D912FFC018F01F02EFE18F8018491D6
:1010D0008823F9F0F60181916F010E94D9060F5F14
:1010E0001F4FAC14BD0481F760960FB6F894DEBFB5
:1010F0000FBECDBFCF91DF911F910F91FF90EF9069
:10110000DF90CF90BF90AF90089580E20E94D90603
:10111000F394FFE0FF15C8F7E7CFAF92BF92CF92ED
:10112000DF92EF92FF920F931F93DF93CF93CDB790
:10113000DEB760970FB6F894DEBF0FBECDBFE82EC6
:10114000192F88EA0E94E60680E991E00197F1F7FD
:101150006E010894C11CD11C8E2D912FFC01AF0192
:10116000D60181E1A82EB12CAC0EBD1EFA0124914E
:101170002C9380E090E004C002968438910559F0E9
:10118000FC01E255FF4FE4912E17B1F781559F4FB7
:10119000FC0184918C934F5F5F4F1196AA15BB059C
:1011A00029F78E2D912FFC018F01F02EFE18F801EA
:1011B00084918823F9F0F60181916F010E94D9068C
:1011C0000F5F1F4FAC14BD0481F760960FB6F89403
:1011D000DEBF0FBECDBFCF91DF911F910F91FF906A
:1011E000EF90DF90CF90BF90AF90089580E20E9483
:1011F000D906F394FFE0FF15C8F7E7CF0F931F93CD
:10120000CF93DF93EC01342F6F5F641B61F140E0FB
:1012100050E0A0E0B0E00FE010E0232F2A0F822F73
:10122000869586958695F801E81BF109EC0FFD1F60
:10123000808190E0277002C0959587952A95E2F706
:10124000817090700A2E02C0880F991F0A94E2F7ED
:10125000482B592B1196A61700F3CA01DF91CF91A5
:101260001F910F91089540E050E0F7CF282F80E0C4
:1012700090E011C0C598C79A00000000B69981603F
:1012800000000000C79800000000000000009F5F01
:10129000983031F0220F880F27FFECCFC59AEBCFA3
:1012A0000895CF92DF92EF920F93DF93CF9300D008
:1012B00000D00F92CDB7DEB7D60189830A832B8386
:1012C0004C836D83FE01319620E0BE016A5F7F4F43
:1012D00049E03081932F80E010C0C598C79A000084
:1012E000000056B300000000C79800000000000096
:1012F00000008F5F883029F0990F97FFEECFC59AD5
:10130000EDCF90E001C0330F220F822F832787FD9E
:1013100024279F5F9830B9F73196E617F707C9F68B
:10132000822F880F816090E010C0C598C79A000096
:10133000000026B300000000C79800000000000075
:1013400000009F5F983029F0880F87FFEECFC59A85
:10135000EDCF40E050E035E320E09FEF80E011C0AA
:10136000C598C79A00000000B699216000000000EF
:10137000C79800000000000000008F5F883031F047
:10138000990F220F97FFECCFC59AEBCF27FF0BC029
:10139000832F8A95F1F74F5F5F4F8FEF4F3F5807CD
:1013A000D9F680E046C02C934F5F5F4FD1F36E2D8E
:1013B00070E06230710528F141E050E020E09FEFDD
:1013C00080E011C0C598C79A00000000B69921605E
:1013D00000000000C79800000000000000008F5FC0
:1013E000883031F0990F220F97FFECCFC59AEBCFE1
:1013F000FD01E40FF51F20834F5F5F4F461757072E
:10140000E8F29FEF80E010C0C598C79A0000000086
:1014100026B300000000C798000000000000000094
:101420008F5F883029F0990F97FFEECFC59AEDCFE7
:1014300081E00F900F900F900F900F90CF91DF9160
:101440000F91EF90DF90CF9008958F929F92AF927F
:10145000BF92CF92DF92EF92FF920F931F93DF9391
:10146000CF93CDB7DEB760970FB6F894DEBF0FBE4F
:10147000CDBF4C01ADB6BEB60F92CDB6DEB6089468
:10148000C11CD11C89E460E040E020E000E0EE24D3
:10149000E3940E945109882321F140E050E080E06C
:1014A0002FEF90E011C0C598C79A00000000B699D0
:1014B000816000000000C7980000000000000000EC
:1014C0009F5F983031F0220F880F27FFECCFC59A2D
:1014D000EBCF8F3FF9F44F5F5F4F6FEF4F3F5607F2
:1014E000F1F680E00FB6F894BEBE0FBEADBE6096BA
:1014F0000FB6F894DEBF0FBECDBFCF91DF911F9125
:101500000F91FF90EF90DF90CF90BF90AF909F90A2
:101510008F9008958E3F09F4C1C0898341E050E067
:101520007E010894E11CF11CF701E40FF51F90E027
:101530002FEF80E011C0C598C79A00000000B6994F
:10154000916000000000C79800000000000000004B
:101550008F5F883031F0220F990F27FFECCFC59AAB
:10156000EBCF91934F5F5F4F4031510500F3809176
:101570002E01843009F495C08E81482F50E000E0A0
:1015800010E020E030E0C90187709070FA0102C0DD
:10159000F595E7958A95E2F7CF0181709070022E5C
:1015A00002C0880F991F0A94E2F7082B192B2F5FAE
:1015B0003F4F2430310539F7A0E0B0E04EE350E072
:1015C0006FE070E0842F869586958695FB01E81B79
:1015D000F109EE0DFF1D808190E09A0127703070B7
:1015E00002C0959587952A95E2F7817090704E53C9
:1015F0005040042E02C0880F991F0A94E2F7A82BCE
:10160000B92B415C5F4F4A345105E1F660E070E070
:101610004FE250E08FE0C82ED12C842F869586951E
:101620008695F601E81BF109EE0DFF1D808190E023
:101630009A012770307002C0959587952A95E2F738
:10164000817090704F525040042E02C0880F991F35
:101650000A94E2F7682B792B405D5F4F42335105C6
:10166000E1F6CD01A0E0B0E00196A11DB11D6E5FD5
:101670007F4F04C0880F991FAA1FBB1F6A95D2F71E
:1016800004C0880F991FAA1FBB1F0A95D2F7F40147
:1016900080839183A283B38381E024CF40E050E034
:1016A0003FCF60E070E040E350E0AFE0B0E0842F77
:1016B000869586958695FD01E81BF109EE0DFF1DC7
:1016C000808190E09A012770307002C095958795CF
:1016D0002A95E2F78170907040535040042E02C06A
:1016E000880F991F0A94E2F7682B792B4F5C5F4FA4
:1016F00046345105E1F6CB01A0E0B0E0C8CF8F92AF
:101700009F92AF92BF92CF92DF92EF92FF920F9390
:101710001F93DF93CF9300D000D0CDB7DEB78DB647
:101720009EB68AE091E00E943A078AE091E00E942A
:10173000AB07BC9ABD9ABF9ABE9820E137E240E958
:1017400051E0CA010197F1F721503040D1F7C49A16
:1017500028E833E140E951E0CA010197F1F721504F
:101760003040D1F7C59A20E040EA5FE0C79ACA014D
:101770000197F1F7C798CA010197F1F72F5F2A3F48
:10178000A9F7C49828EE33E040E951E0CA01019777
:10179000F1F721503040D1F700D000D00F92ADB614
:1017A000BEB60894A11CB11C1A2DFB2C80E460E08D
:1017B00040E020E000E0EE24E39465010E9451093E
:1017C000882321F0D5018C91813049F082E391E0AA
:1017D0000E941C0884E491E00E948D08FFCF1092C3
:1017E0002E0188E46AEA41E020E000E055E0E52EC1
:1017F00065010E945109882321F0F5018081813023
:10180000D9F181E460E040E020E000E0EE24E394E0
:10181000C12EDF2C0E945109882399F3F5018081A4
:10182000882379F780912E01813019F082E080932E
:101830002E0180E560E040E022E000E0EE24E39449
:10184000C12EDF2C0E94510980912E01843009F4B1
:1018500059C019821A821B821C82CE0101960E94F5
:10186000250A8823B1F488E691E00E941C088AE7E3
:1018700091E00E948D08FFCF83818F70813021F429
:1018800084818A3A09F476C086E591E00E941C08BA
:10189000FFCF00D000D000D0EDB7FEB7319605E302
:1018A00011E0ADB7BEB712961C930E9311978BE063
:1018B00091E09383828389819A81AB81BC8124E109
:1018C000B695A795979587952A95D1F795838483A3
:1018D0000E946F1CEDB7FEB736960FB6F894FEBFA8
:1018E0000FBEEDBF8CE891E00E941C08C8010E9469
:1018F000AB0780E197E220E931E0F9013197F1F798
:101900000197D9F780E090E03FEF20E010C0C59844
:10191000C79A0000000046B300000000C79800000E
:101920000000000000002F5F283029F0330F37FF40
:10193000EECFC59AEDCF0196F4E080309F0721F7F6
:101940000FB6F8949EBE0FBE8DBE0F900F900F90F5
:101950000F90CF91DF911F910F91FF90EF90DF904B
:10196000CF90BF90AF909F908F900895F5018081A8
:10197000882321F187E760E040E020E000E0EE24EA
:10198000E394C12EDF2C0E945109882391F0D501E8
:101990008C91823070F481E460E040E020E000E46B
:1019A000EE24E394C12EDF2C0E945109882311F309
:1019B000DDCF86E591E00E941C08FFCF8AE760E05A
:1019C00040E020E000E035E0E32E0E94510988234A
:1019D00049F0D50111968C9186FF09C084E080936F
:1019E0002E0127CF86E591E00E941C08FFCF83E0FF
:1019F00080932E011ECFFC01809111019091120164
:101A00008050924010F080E0089590E02FEF80E049
:101A100011C0C598C79A00000000B69991600000F7
:101A20000000C79800000000000000008F5F8830B1
:101A300031F0220F990F27FFECCFC59AEBCF90839F
:101A4000809111019091120101969093120180935F
:101A500011018050924011F081E008958FEF0E94B3
:101A600036098FEF0E94360981E008952F923F9248
:101A70004F925F926F927F928F929F92AF92BF929E
:101A8000CF92DF92EF92FF920F931F93DF93CF934A
:101A9000CDB7DEB73B014C012DB63EB680912E018D
:101AA000843039F0F9E0660C771C881C991CFA9593
:101AB000D1F70F924DB65EB60894411C511C5527C4
:101AC000492D382D272D740100271127A92CBB245F
:101AD000CC24DD2481E5662D422F2E2D0A2DEE2407
:101AE000E39462010E945109882321F0F201808170
:101AF0008823C9F080E00FB6F8943EBE0FBE2DBE1D
:101B0000CF91DF911F910F91FF90EF90DF90CF90D9
:101B1000BF90AF909F908F907F906F905F904F900D
:101B20003F902F9008959FEF10C0C598C79A00006E
:101B3000000026B300000000C7980000000000006D
:101B400000008F5F883029F0990F97FFEECFC59A7C
:101B5000EDCF40E050E035E390E02FEF80E011C0A2
:101B6000C598C79A00000000B69991600000000077
:101B7000C79800000000000000008F5F883031F03F
:101B8000220F990F27FFECCFC59AEBCF9E3F51F064
:101B9000832F8A95F1F74F5F5F4FFFEF4F3F5F074E
:101BA000D9F6A8CF109212011092110181E0A3CFB3
:101BB0002F923F924F925F926F927F928F929F925D
:101BC000AF92BF92CF92DF92EF92FF920F931F934B
:101BD000DF93CF9300D00F92CDB7DEB73B014C011E
:101BE0002A0129832DB73EB73B832A8380912E019A
:101BF000843039F009E0660C771C881C991C0A9522
:101C0000D1F70F922DB63EB60894211C311C5527F2
:101C1000492D382D272D740100271127A92CBB240D
:101C2000CC24DD2481E5662D422F2E2D0A2DEE24B5
:101C3000E39461010E945109882321F0F101808120
:101C40008823F1F080E02A813B810FB6F8943EBFF3
:101C50000FBE2DBF0F900F900F90CF91DF911F916E
:101C60000F91FF90EF90DF90CF90BF90AF909F903B
:101C70008F907F906F905F904F903F902F9008953E
:101C80009FEF10C0C598C79A0000000026B300005F
:101C90000000C79800000000000000008F5F88303F
:101CA00029F0990F97FFEECFC59AEDCF40E050E0B5
:101CB00035E390E02FEF80E011C0C598C79A00008F
:101CC0000000B699916000000000C7980000000075
:101CD000000000008F5F883031F0220F990F27FF3E
:101CE000ECCFC59AEBCF9E3F51F0832F8A95F1F749
:101CF0004F5F5F4FFFEF4F3F5F07D9F6A3CF40E045
:101D000050E020E09FEF80E011C0C598C79A000026
:101D10000000B699216000000000C7980000000094
:101D2000000000008F5F883031F0990F220F97FF7D
:101D3000ECCFC59AEBCF3981332321F14F3F5105C9
:101D400009F018F4F20121932F014F5F5F4FF2E089
:101D500040305F07B1F69FEF80E010C0C598C79A8A
:101D60000000000026B300000000C798000000003B
:101D7000000000008F5F883051F0990F97FFEECF81
:101D8000C59AEDCF4F3F510501F3F8F2DBCF9FEF3E
:101D900080E010C0C598C79A0000000026B300007C
:101DA0000000C79800000000000000008F5F88302E
:101DB00029F0990F97FFEECFC59AEDCF81E043CF81
:101DC0008D9A8F9A8E9AA09A8FEF8ABBA19A87B329
:101DD000807F87BB959A979A969AA89A0895979824
:101DE0000000000095980000000000000000979A95
:101DF00000000000959A08950F931F9327B3207F4A
:101E000027BBA89A6BBBA99855B38C01222733270F
:101E10000170000F052B05BB9598672F782F892F30
:101E200099276BBBA998442309F4A99A97980000B5
:101E30000000A8980000000086B3A89A979A979A85
:101E4000959A8F701F910F910895EF92FF920F93C3
:101E50001F93A89A37B33F6037BB6BBBA99835B3C4
:101E60007C010027112751E0E522EE0CE32AE5BAB8
:101E70009598000096980000672F782F892F992752
:101E80006BBBA998222309F4A99A88B3807F88BBE9
:101E900088B34F70842B88BB979800000000969AF7
:101EA000979A959A1F910F91FF90EF900895DF9266
:101EB000EF92FF920F931F937B018C0140E00E94F1
:101EC000FC0ED82ED294F0EFDF22C801B70141E01A
:101ED0000E94FC0E8D291F910F91FF90EF90DF90D3
:101EE0000895DF92EF92FF920F931F937B018C0175
:101EF000D42E42954F7020E00E94250F8FE0D8220B
:101F0000C801B7014D2D21E00E94250F1F910F91AF
:101F1000FF90EF90DF900895EF92FF920F931F9341
:101F20007B018C0180912F0190913001A0913101B2
:101F3000B0913201E80EF91E0A1F1B1F5527412FD1
:101F4000302F2F2D8091140190911501A091160131
:101F5000B0911701281739074A075B0701F1209351
:101F60001401309315014093160150931701BA01E3
:101F7000A901769567955795479520E0D801C70147
:101F80009170A070B0708F3F9105A105B105A1F0CF
:101F900098F0CB01BA014EE451E00E94D80DF70150
:101FA000F070E25BFE4F608170E080E090E01F9196
:101FB0000F91FF90EF90089521E0EBCFAF92BF9289
:101FC000CF92DF92EF92FF920F931F935B016C0110
:101FD0006D5F7F4F8F4F9F4F0E948C0FEE24F62E28
:101FE000072F182FC601B5016E5F7F4F8F4F9F4F90
:101FF0000E948C0FE62AF72A082B192B102F0F2D81
:10200000FE2CEE24C601B5016F5F7F4F8F4F9F4FAF
:102010000E948C0FE62AF72A082B192B102F0F2D60
:10202000FE2CEE24C601B5010E948C0F9B01AC0171
:102030002E293F29402B512BB901CA011F910F9125
:10204000FF90EF90DF90CF90BF90AF900895AF9248
:10205000BF92CF92DF92EF92FF920F931F935B019B
:102060006C016F5F7F4F8F4F9F4F0E948C0FEE244C
:10207000F62E072F182FC601B5010E948C0F9B0169
:10208000AC012E293F29402B512BB901CA011F91C8
:102090000F91FF90EF90DF90CF90BF90AF90089599
:1020A0002F923F924F925F926F927F928F929F9268
:1020B000AF92BF92CF92DF92EF92FF920F931F9356
:1020C000CF93DF93EC018C819D81AE81BF8180979E
:1020D000A109B1098C839D83AE83BF832889398987
:1020E0004A895B8982179307A407B50708F0B4C033
:1020F000288139814A815B8180918E0290918F0283
:10210000A0919002B0919102281739074A075B0706
:1021100009F4B6C0288439844A845B8437C0EE242D
:10212000FF24870160917A0270917B0280917C028A
:1021300090917D0220915A0230915B0240915C02A5
:1021400050915D020E942E1CE60EF71E081F191FFB
:10215000C801B7010E9427107B018C01DC01CB0173
:102160000397A109B109855F9F4FA040B04008F0D7
:1021700087C08C859D85AE85BF85E816F9060A0760
:102180001B0779F0C701D8011C012D018091330193
:10219000813029F682017101EE0CFF1C001F111F16
:1021A000C1CFD201C1010397A109B109855F9F4F3A
:1021B000A040B04008F064C02C863D864E865F8605
:1021C0006090520270905302809054029090550299
:1021D000A0907A02B0907B02C0907C02D0907D02E9
:1021E0008EEF9FEFAFEFBFEF280E391E4A1E5B1E2A
:1021F000C201B101A40193010E942E1C9B01AC01FC
:1022000060914E0270914F02809150029091510264
:10221000620F731F841F951FA60195010E942E1C3B
:102220007B018C01688B798B8A8B9B8BC601B501F6
:10223000A40193010E942E1C6E0D7F1D801F911F13
:102240006C8B7D8B8E8B9F8B60527040804090405A
:102250006C837D838E839F8381E0DF91CF911F917B
:102260000F91FF90EF90DF90CF90BF90AF909F9035
:102270008F907F906F905F904F903F902F90089538
:1022800080E0EBCF6F927F928F929F92AF92BF923E
:10229000CF92DF92EF92FF920F931F93CF93DF9332
:1022A000EC018C819D81AE81BF818096A11DB11D05
:1022B0008C839D83AE83BF832C893D894E895F8942
:1022C00082179307A407B50708F4A1C028813981B4
:1022D0004A815B8180918E0290918F02A091900241
:1022E000B0919102281739074A075B0721F08091C6
:1022F0003301813011F080E08BC060917A027091DF
:102300007B0280917C0290917D0220915A02309153
:102310005B0240915C0250915D020E942E1C9B0169
:10232000AC016C857D858E859F85660F771F881F24
:10233000991F620F731F841F951F0E9427109B0116
:10234000AC016115710581059105A9F280918202A8
:1023500090918302A0918402B09185020296A11D02
:10236000B11D281739074A075B0728F6283F8FEF6A
:10237000380780E0480780E0580708F0BCCF2C877A
:102380003D874E875F876090520270905302809025
:10239000540290905502A0907A02B0907B02C090B7
:1023A0007C02D0907D022250304040405040CA0113
:1023B000B901A40193010E942E1C9B01AC01609104
:1023C0004E0270914F028091500290915102620F23
:1023D000731F841F951FA60195010E942E1C7B016F
:1023E0008C016C837D838E839F83688B798B8A8B32
:1023F0009B8BC601B501A40193010E942E1C6E0D9A
:102400007F1D801F911F6C8B7D8B8E8B9F8B81E03E
:10241000DF91CF911F910F91FF90EF90DF90CF90C0
:10242000BF90AF909F908F907F906F900895AF92E4
:10243000BF92CF92DF92EF92FF920F931F93DF93A1
:10244000CF9300D000D0CDB7DEB783E191E00E94FA
:102450003A0783E191E00E94AB078FEF9FEFAFEF68
:10246000BFEF8093140190931501A0931601B093D0
:10247000170110922F011092300110923101109229
:10248000320160E070E080E090E00E948C0F6B3ED3
:1024900011F0693E81F46EEF71E080E090E00E94FF
:1024A0008C0F6535710581059105B1F08EE991E0DC
:1024B0000E948D08FFCF6EEF71E080E090E00E94F7
:1024C0008C0F653571058105910509F40BC28EE904
:1024D00091E00E948D08FFCF6FEF71E080E090E007
:1024E0000E948C0F6A3A710581059105F9F68FEF0C
:1024F0009FEFAFEFBFEF8093140190931501A0936E
:102500001601B09317016DE070E080E090E00E944A
:102510008C0F6093520270935302809354029093F5
:1025200055026BE070E080E090E00E94271060931D
:102530007A0270937B0280937C0290937D026EE01E
:1025400070E080E090E00E94271060935A02709340
:102550005B0280935C0290935D0261E170E080E039
:1025600090E00E94271020917A0230917B024091E6
:102570007C0250917D0279018A010894E108F108FA
:1025800001091109660F771F881F991F660F771FB2
:10259000881F991F660F771F881F991F660F771F67
:1025A000881F991F660F771F881F991FE60EF71E59
:1025B000081F191FC801B7010E944D1CCA01B901AB
:1025C0000E94751B0E94361B0E94491B6093860265
:1025D00070938702809388029093890266E170E08D
:1025E00080E090E00E94271060935E0270935F028B
:1025F00080936002909361026115710581059105D8
:1026000071F464E270E080E090E00E94DE0F60937D
:102610005E0270935F02809360029093610263E1B7
:1026200070E080E090E00E9427107B018C01611532
:1026300071058105910541F460E270E080E090E071
:102640000E94DE0F7B018C0160E170E080E090E091
:102650000E948C0F2091860230918702409188025F
:1026600050918902A0905A02B0905B02C0905C0227
:10267000D0905D02E21AF30A040B150BEA18FB086E
:102680000C091D0920915E0230915F0240916002A9
:10269000509161020E942E1CE61AF70A080B190BD2
:1026A000E0927E02F0927F020093800210938102FA
:1026B00020915202309153024091540250915502A0
:1026C000C801B7010E944D1CCA01B9010E94751BC7
:1026D0000E94B21B0E94491B609382027093830286
:1026E000809384029093850260E170E080E090E046
:1026F0000E948C0FE0908602F09087020091880281
:102700001091890220915A0230915B0240915C0243
:1027100050915D02E20EF31E041F151F20915E0210
:1027200030915F0240916002509161020E942E1C24
:10273000E60EF71E081F191FE0924E02F0924F029C
:1027400000935002109351021092330182EC91E0F9
:102750000E941C088091820290918302A0918402C1
:10276000B0918502853FEFE09E07E0E0AE07E0E034
:10277000BE0708F43CC1855F9F4FA040B04008F001
:1027800031C186EE91E00E948D0880E29EE420E94E
:1027900031E0F9013197F1F70197D9F781E08093A2
:1027A000330160E170E080E090E00E948C0F2091A6
:1027B0005E0230915F0240916002509161020E947E
:1027C0002E1C7B018C0180915A0290915B02A0919A
:1027D0005C02B0915D02E80EF91E0A1F1B1FE09219
:1027E0005602F09257020093580210935902A0909B
:1027F0007A02B0907B02C0907C02D0907D02209142
:102800005202309153024091540250915502C60138
:10281000B5010E942E1C60938A0270938B028093F4
:102820008C0290938D02C601B501A80197010E9408
:102830002E1C7B018C0160938E0270938F0280931B
:10284000900290939102609362027093630280936E
:1028500064029093650260936602709367028093AE
:1028600068029093690210926A0210926B021092B1
:102870006C0210926D0210926E0210926F02109212
:10288000700210927102209186023091870240916D
:10289000880250918902C601B5010E942E1C6E0D5E
:1028A0007F1D801F911F6093760270937702809343
:1028B000780290937902E0927202F0927302009390
:1028C0007402109375020F900F900F900F90CF919C
:1028D000DF911F910F91FF90EF90DF90CF90BF900D
:1028E000AF9008956FEF71E080E090E00E948C0F50
:1028F0006A3A71058105910509F0E9CD80EB91E017
:102900000E941C0880E29EE420E931E0F901319741
:10291000F1F70197D9F75E010894A11CB11CCC24F2
:10292000DD2436ECE32E31E0F32E012D112D109233
:102930002F01109230011092310110923201C80122
:10294000B7010E948C0F6983C801B7016F5F7F4F89
:102950008F4F9F4F0E948C0F6A83C801B7016E5F33
:102960007F4F8F4F9F4F0E948C0F6B83C801B70121
:102970006D5F7F4F8F4F9F4F0E948C0F6C83F501CF
:1029800080819181A281B38129E0880F991FAA1FBC
:10299000BB1F2A95D1F780932F0190933001A0930C
:1029A0003101B093320160E070E080E090E00E947D
:1029B0008C0F6B3E09F1693EF9F00894C11CD11CE3
:1029C00080E190E0A0E0B0E0E80EF91E0A1F1B1FB6
:1029D00094E0C916D10409F0AACF8EE991E00E94D3
:1029E0008D08FFCF88EF91E00E948D08FFCF84ED26
:1029F00091E00E948D08FFCF6EEF71E080E090E0E3
:102A00000E948C0F6535710581059105B1F66FEF58
:102A100071E080E090E00E948C0F6A3A71058105B8
:102A2000910559F664CD6F927F928F929F92AF92EB
:102A3000BF92CF92DF92EF92FF920F931F93DF939B
:102A4000CF93CDB7DEB768970FB6F894DEBF0FBE51
:102A5000CDBF5C016B014A017901D9011C9200973D
:102A600059F080E090E020E2F501E80FF91F2083A3
:102A700001968B309105C1F710E06091660270916C
:102A800067028091680290916902610F711D811D3A
:102A9000911D0E948C0F112331F4603209F45DC046
:102AA000653E09F45AC0603208F457C0A114B1045D
:102AB00039F0183008F067C0F501E10FF11D6083AF
:102AC000113009F465C01F5F1B30B8F260916602D7
:102AD000709167028091680290916902655F7F4FF3
:102AE0008F4F9F4F0E948C0F70E063FD36C050E106
:102AF000652E712C6622772264FD6BC060916602A0
:102B0000709167028091680290916902665F7F4FC1
:102B10008F4F9F4F0E948C0F162F6091660270910D
:102B200067028091680290916902675F7F4F8F4FC3
:102B30009F4F0E948C0F062F609166027091670272
:102B40008091680290916902685F7F4F8F4F9F4F1D
:102B50000E948C0F103509F400C180E068960FB612
:102B6000F894DEBF0FBECDBFCF91DF911F910F91C3
:102B7000FF90EF90DF90CF90BF90AF909F908F909D
:102B80007F906F900895F501E10FF11D61839BCF58
:102B9000609166027091670280916802909169026B
:102BA0000E948C0F162F60916602709167028091CF
:102BB0006802909169026F5F7F4F8F4F9F4F0E9415
:102BC0008C0F1E3211F012E058CF6E3231F612E047
:102BD00054CF609166027091670280916802909173
:102BE00069020E948C0F162F609166027091670235
:102BF00080916802909169026F5F7F4F8F4F9F4F66
:102C00000E948C0F1E3209F40AC181E0D7018C9317
:102C100060916602709167028091680290916902EA
:102C20006C5E7F4F8F4F9F4F0E9427107B018C015E
:102C300060916602709167028091680290916902CA
:102C4000665E7F4F8F4F9F4F0E9427108701FF24A2
:102C5000EE24E62AF72A082B192BF601E082F182EE
:102C6000028313836091660270916702809168020B
:102C700090916902645E7F4F8F4F9F4F0E94DE0FDD
:102C8000D4016D937D938D939C931397A114B104FC
:102C900009F4D2C0672809F45CC0D5011C961C92C7
:102CA0004E010894811C911CD401E2E6F2E088E117
:102CB00001900D928150E1F7DD24C4010E94501073
:102CC000882309F4B3C06D817E818F819885655F0B
:102CD0007F4F8F4F9F4F0E948C0F6F706F3009F0A6
:102CE000A5C06D817E818F8198850E948C0FC62E34
:102CF000B1E1DB1639F1EE24FF2487016D817E817D
:102D00008F8198856F5F7F4F8F4F9F4F6E0D7F1D17
:102D1000801F911F0E948C0FF501ED0DF11D608346
:102D2000D394E8E0EE16F10401051105E9F082E024
:102D300090E0A0E0B0E0E80EF91E0A1F1B1F90E132
:102D40009D15E0F6E0E1F0E0EA0DFB1D108281E068
:102D500005CF8EE2F5018087A0CF013409F0FDCECA
:102D6000643509F0FACE54CFF0E1FD1558F3EE24A6
:102D7000FF2487010BC082E090E0A0E0B0E0E80E05
:102D8000F91E0A1F1B1F90E19D15E0F26D817E81E7
:102D90008F819885625F7F4F8F4F9F4F6E0D7F1D94
:102DA000801F911F0E948C0FF501ED0DF11D6083B6
:102DB000D394AAE0EA16F10401051105E1F6B0E1A9
:102DC000BD1508F4BFCF6D817E818F819885645ECB
:102DD0007F4F8F4F9F4F0E948C0FF501ED0DF11D1E
:102DE00060831D2D1F5F113109F4ACCF6D817E8191
:102DF0008F819885625E7F4F8F4F9F4F0E948C0F0F
:102E0000F501E10FF11D6083D12ED394A1E1DA1613
:102E100009F498CFC6FE51CFED2DF0E095CF6E327C
:102E200009F0F3CE8FEFF7018083F2CEB0E1BD154C
:102E300008F488CFDD2081F781E090CE2F923F9279
:102E40004F925F926F927F928F929F92AF92BF92BA
:102E5000CF92DF92EF92FF920F931F93DF93CF9366
:102E6000CDB7DEB766970FB6F894DEBF0FBECDBF05
:102E70009A8B898B7C8B6B8BFC011182108285E392
:102E800091E0BE016E5F7F4FAE014A5F5F4F9E01D2
:102E90002F5F3F4F0E941315882309F4CDC08E8108
:102EA0009F81A885B9850097A105B10509F4C4C023
:102EB000222433242101188A1F861E861D861C8623
:102EC0001B861A860E94EF0EA0908A02B0908B0299
:102ED000C0908C02D0908D022E813F81488559850B
:102EE000D201C1018A0D9B1DAC1DBD1D8217930728
:102EF000A407B50730F059016A01A218B308C40845
:102F0000D5086A817B818C819D81625070408040B0
:102F100090402091520230915302409154025091BE
:102F200055020E942E1C9B01AC0160914E027091D3
:102F30004F028091500290915102620F731F841FC3
:102F4000951F20917A0230917B0240917C02509132
:102F50007D020E942E1C3B014C01A114B104C1044E
:102F6000D10409F465C0EE24FF24870117C0262F81
:102F700030E03C872B8731E03A870894E11CF11C54
:102F8000011D111DD801C701820D931DA41DB51D82
:102F9000EA14FB040C051D0508F048C00E94EF0E62
:102FA000C801B701660D771D881D991D0E948C0F01
:102FB000462FFA85FF23D9F28A85813041F18A852F
:102FC0008230D9F6ED85FE852B893C89E217F3071F
:102FD00009F496C02F8538892F5F3F4F388B2F8794
:102FE0008B859C852817390740F2ED85FE852B8956
:102FF0003C89E217F30709F48BC02D853E852F5FCE
:103000003F4F3E872D871C861B861A86B6CF4E8B78
:103010001D8AEB85FC852D893E89E22BF32BFC87ED
:10302000EB87188A1F8632E03A87A7CF1C012D0153
:10303000809133018130D1F080E066960FB6F8942C
:10304000DEBF0FBECDBFCF91DF911F910F91FF90DB
:10305000EF90DF90CF90BF90AF909F908F907F9038
:103060006F905F904F903F902F90089560917A02FB
:1030700070917B0280917C0290917D0220915A0296
:1030800030915B0240915C0250915D020E942E1CC7
:103090009B01AC016A817B818C819D81660F771FCA
:1030A000881F991F620F731F841F951F0E9427108E
:1030B0009B01AC01611571058105910509F4BCCF37
:1030C0008091820290918302A0918402B091850246
:1030D0000296A11DB11D281739074A075B0708F0A2
:1030E000ABCF8E819F81A885B985281639064A06FF
:1030F0005B0608F0A1CF2A833B834C835D83E2CE3D
:10310000EF85F889BF0180E090E00E94710F62CFE7
:10311000E989FA899183808381E08FCFEF92FF92D2
:103120000F931F93DF93CF93CDB7DEB768970FB69A
:10313000F894DEBF0FBECDBF7E010894E11CF11CE8
:10314000D701E2E6F2E088E101900D928150E1F7CB
:10315000C7010E945010882309F459C010E06D8106
:103160007E818F819885610F711D811D911D0E9447
:103170008C0F112321F4603259F3653E49F360321C
:1031800038F3113009F450C01F5F1B3040F36D81DC
:103190007E818F819885655F7F4F8F4F9F4F0E9403
:1031A0008C0F63FDD5CF64FD29C06D817E818F8139
:1031B0009885665F7F4F8F4F9F4F0E948C0F162F11
:1031C0006D817E818F819885675F7F4F8F4F9F4F85
:1031D0000E948C0F062F6D817E818F819885685F9C
:1031E0007F4F8F4F9F4F0E948C0F103509F0B0CF4B
:1031F000013409F0ADCF643509F0AACFA2E6B2E000
:10320000F70188E101900D928150E1F781E0689625
:103210000FB6F894DEBF0FBECDBFCF91DF911F91E7
:103220000F91FF90EF9008956D817E818F81988539
:103230000E948C0F162F6D817E818F8198856F5F24
:103240007F4F8F4F9F4F0E948C0F1E3211F012E064
:1032500086CF6E3209F07CCF12E081CFEF92FF92E1
:103260000F931F93DF93CF93CDB7DEB768970FB659
:10327000F894DEBF0FBECDBF7E010894E11CF11CA7
:10328000D701E2E6F2E088E101900D928150E1F78A
:10329000C7010E944211882309F459C010E06D81D2
:1032A0007E818F819885610F711D811D911D0E9406
:1032B0008C0F112321F4603259F3653E49F36032DB
:1032C00038F3113009F450C01F5F1B3040F36D819B
:1032D0007E818F819885655F7F4F8F4F9F4F0E94C2
:1032E0008C0F63FDD5CF64FD29C06D817E818F81F8
:1032F0009885665F7F4F8F4F9F4F0E948C0F162FD0
:103300006D817E818F819885675F7F4F8F4F9F4F43
:103310000E948C0F062F6D817E818F819885685F5A
:103320007F4F8F4F9F4F0E948C0F103509F0B0CF09
:10333000013409F0ADCF643509F0AACFA2E6B2E0BE
:10334000F70188E101900D928150E1F781E06896E4
:103350000FB6F894DEBF0FBECDBFCF91DF911F91A6
:103360000F91FF90EF9008956D817E818F819885F8
:103370000E948C0F162F6D817E818F8198856F5FE3
:103380007F4F8F4F9F4F0E948C0F1E3211F012E023
:1033900086CF6E3209F07CCF12E081CFCF92DF92E0
:1033A000EF92FF920F931F93DF93CF93CDB7DEB7CA
:1033B00029970FB6F894DEBF0FBECDBFE090620232
:1033C000F09063020091640210916502E09266023F
:1033D000F0926702009368021093690280916A027A
:1033E00090916B02A0916C02B0916D0280936E027D
:1033F00090936F02A0937002B0937102E0927202F8
:10340000F0927302009374021093750280918E0201
:1034100090918F02A0919002B0919102E816F90666
:103420000A071B0709F447C060917A0270917B027A
:1034300080917C0290917D02209152023091530242
:1034400040915402509155020E942E1CE60EF71E28
:10345000081F191FE0927602F0927702009378021B
:1034600010937902A2E0CA2ED12CCC0EDD1EF6E01C
:10347000EF2EF12CEC0EFD1E8E010F5F1F4F80E032
:1034800090E0B601A70198010E941315882321F549
:103490000E942E19882399F729960FB6F894DEBF5B
:1034A0000FBECDBFCF91DF911F910F91FF90EF9095
:1034B000DF90CF90089560917A0270917B028091A5
:1034C0007C0290917D02209186023091870240918A
:1034D000880250918902B8CF81E0DECF2F923F92CF
:1034E0004F925F926F927F928F929F92AF92BF9214
:1034F000CF92DF92EF92FF920F931F931B012C014B
:10350000611571058105910509F481C06090520231
:10351000709053028090540290905502A0907A02CD
:10352000B0907B02C0907C02D0907D0262507040CF
:1035300080409040A40193010E942E1C9B01AC018D
:1035400060914E0270914F02809150029091510211
:10355000620F731F841F951FA60195010E942E1CE8
:103560007B018C016093620270936302809364021A
:1035700090936502C601B501A40193010E942E1C1F
:10358000E60EF71E081F191FE0927602F0927702EE
:10359000009378021093790220926A0230926B02B3
:1035A00040926C0250926D0220926E0230926F0235
:1035B0004092700250927102809162029091630277
:1035C000A0916402B09165028093660290936702B5
:1035D000A0936802B0936902809372029093730281
:1035E000A0937402B09375020E94CE191F910F919F
:1035F000FF90EF90DF90CF90BF90AF909F908F9013
:103600007F906F905F904F903F902F900895E09043
:103610008E02F0908F020091900210919102E09240
:103620006202F0926302009364021093650260915B
:103630007A0270917B0280917C0290917D022091B0
:1036400086023091870240918802509189020E943F
:103650002E1CE60EF71E081F191FE0927602F0924C
:103660007702009378021093790296CFD9D080F038
:103670009F3740F491110EF4EBC060E070E080E8F9
:103680009FE3089526F01B16611D711D811D7DC0ED
:1036900097C0ACD088F09F5790F0B92F9927B751B9
:1036A000A0F0D1F0660F771F881F991F1AF0BA9506
:1036B000C9F712C0B13081F0CAD0B1E00895C7C0D7
:1036C000672F782F8827B85F39F0B93FCCF38695FC
:1036D00077956795B395D9F73EF490958095709559
:1036E00061957F4F8F4F9F4F0895E89409C097FBD6
:1036F0003EF490958095709561957F4F8F4F9F4FC9
:103700009923A9F0F92F96E9BB279395F69587950C
:1037100077956795B795F111F8CFFAF4BB0F11F4CF
:1037200060FF1BC06F5F7F4F8F4F9F4F16C0882376
:1037300011F096E911C0772321F09EE8872F762FAC
:1037400005C0662371F096E8862F70E060E02AF0ED
:103750009A95660F771F881FDAF7880F96958795D9
:1037600097F908955DD080F09F3740F491110EF0E5
:103770006FC060E070E080E89FEB089526F41B16B0
:10378000611D711D811D01C01BC0882371F4772349
:1037900021F09850872B762F07C0662311F49927C4
:1037A0000DC09051862B70E060E02AF09A95660F6C
:1037B000771F881FDAF7880F9695879597F90895F0
:1037C0009F3F31F0915020F4879577956795B79595
:1037D000880F911D9695879597F9089557FD9058F4
:1037E000440F551F59F05F3F71F04795880F97FBC5
:1037F000991F61F09F3F79F087950895121613067F
:103800001406551FF2CF4695F1DF08C016161706AD
:103810001806991FF1CF86957105610508940895E2
:10382000E5DFA0F0BEE7B91788F4BB279F3860F446
:103830001616B11D672F782F8827985FF7CF8695CA
:1038400077956795B11D93959639C8F30895E894D7
:10385000BB2766277727CB0197F90895629FD00190
:10386000739FF001829FE00DF11D649FE00DF11D3B
:10387000929FF00D839FF00D749FF00D659FF00DEA
:103880009927729FB00DE11DF91F639FB00DE11DD7
:10389000F91FBD01CF0111240895A1E21A2EAA1B20
:1038A000BB1BFD010DC0AA1FBB1FEE1FFF1FA217F0
:1038B000B307E407F50720F0A21BB30BE40BF50BED
:1038C000661F771F881F991F1A9469F76095709576
:1038D000809590959B01AC01BD01CF010895AEE0AC
:1038E000B0E0E5E7FCE10C941E1F0D891E8986E01F
:1038F0008C831A8309838FEF9FE79E838D839E01BC
:10390000275E3F4FCE0101966F89788DA9010E94F5
:10391000931C2F813885020F131FF80110822E96F9
:10392000E4E00C943A1FABE0B0E0E9E9FCE10C9470
:10393000101F3C012B015A01FC0117821682838162
:1039400081FD03C06FEF7FEFC6C19AE0892E1E0193
:103950000894211C311CF3012381F20123FD859180
:1039600023FF81912F01882309F4B2C1853239F4F4
:1039700023FD859123FF81912F01853229F490E069
:10398000B3010E94861EE7CF982FFF24EE249924CE
:10399000FFE1FF15D0F09B3269F09C3228F49032A1
:1039A00059F0933291F40EC09D3249F0903369F48E
:1039B00041E024C052E0F52A84E0F82A28C098E0CB
:1039C000F92A25C0E0E1FE2A22C0F7FC29C0892F90
:1039D00080538A3070F4F6FE05C0989C902C112418
:1039E000980E15C0E89CE02C1124E80EF0E2FF2AA6
:1039F0000EC09E3229F4F6FC6BC140E4F42A07C0E5
:103A00009C3619F450E8F52A02C0983649F4F201C0
:103A100023FD959123FF91912F01992309F0B8CFB0
:103A2000892F8554833018F08052833038F444E075
:103A300050E0A40EB51E5FE359830FC0933631F0FA
:103A4000933779F0933509F056C020C0F501808195
:103A5000898342E050E0A40EB51E610101E010E050
:103A600012C0F501C080D180F6FC03C06FEF7FEF7C
:103A700002C0692D70E042E050E0A40EB51EC60100
:103A80000E947B1E8C015FE7F52214C0F501C08007
:103A9000D180F6FC03C06FEF7FEF02C0692D70E0AC
:103AA00042E050E0A40EB51EC6010E94701E8C01BB
:103AB00050E8F52AF3FE07C01AC080E290E0B30197
:103AC0000E94861EEA948E2D90E008171907A8F32D
:103AD0000EC0F601F7FC8591F7FE81916F0190E031
:103AE000B3010E94861EE110EA94015010400115B6
:103AF000110579F7EAC0943611F0993669F5F7FEA9
:103B000008C0F501208131814281538184E090E039
:103B10000AC0F501808191819C01442737FD4095C1
:103B2000542F82E090E0A80EB91E9FE6F92257FFBD
:103B300009C050954095309521953F4F4F4F5F4FAD
:103B4000E0E8FE2ACA01B901A1012AE030E00E94A2
:103B5000B21ED82ED21840C0953729F41F2D1F7ED3
:103B60002AE030E01DC01F2D197F9F3661F090378D
:103B700020F4983509F0ACC00FC0903739F0983771
:103B800009F0A6C004C028E030E00AC0106114FDAE
:103B9000146020E130E004C014FD166020E132E042
:103BA00017FF08C0F501608171818281938144E033
:103BB00050E008C0F50180819181BC0180E090E077
:103BC00042E050E0A40EB51EA1010E94B21ED82E04
:103BD000D2188FE7F82EF122F6FE0BC05EEFF52229
:103BE000D91438F4F4FE07C0F2FC05C08FEEF822B9
:103BF00002C01D2D01C0192DF4FE0DC0FE01ED0DFA
:103C0000F11D8081803319F499EEF92208C01F5FFD
:103C1000F2FE05C003C08F2D867809F01F5F0F2DBF
:103C2000F3FC14C0F0FE0FC01E1510F09D2C0BC04D
:103C30009D2C9E0C911A1E2D06C080E290E0B301CF
:103C40000E94861E1F5F1E15C0F304C01E1510F4CF
:103C5000E11A01C0EE2404FF0FC080E390E0B3013D
:103C60000E94861E02FF1DC001FD03C088E790E090
:103C70000EC088E590E00BC0802F867891F001FFA0
:103C800002C08BE201C080E2F7FC8DE290E0B3015C
:103C90000E94861E06C080E390E0B3010E94861E4B
:103CA0009A94D914C0F3DA94F101ED0DF11D8081DD
:103CB00090E0B3010E94861EDD20A9F706C080E2D5
:103CC00090E0B3010E94861EEA94EE20C1F743CE35
:103CD000F30166817781CB012B96E2E10C942C1FD6
:103CE000FC010590615070400110D8F780959095C7
:103CF0008E0F9F1F0895FC016150704001900110CC
:103D0000D8F7809590958E0F9F1F08950F931F935E
:103D1000CF93DF938C01EB018B8181FF1BC082FF6E
:103D20000DC02E813F818C819D812817390764F455
:103D3000E881F9810193F983E88306C0E885F98574
:103D4000802F0995892B31F48E819F8101969F8365
:103D50008E8302C00FEF1FEFC801DF91CF911F913B
:103D60000F910895FA01AA27283051F1203181F1ED
:103D7000E8946F936E7F6E5F7F4F8F4F9F4FAF4F73
:103D8000B1E03ED0B4E03CD0670F781F891F9A1F86
:103D9000A11D680F791F8A1F911DA11D6A0F711D3A
:103DA000811D911DA11D20D009F468943F912AE046
:103DB000269F11243019305D3193DEF6CF0108952E
:103DC000462F4770405D4193B3E00FD0C9F7F6CF5F
:103DD000462F4F70405D4A3318F0495D31FD405227
:103DE000419302D0A9F7EACFB4E0A69597958795BD
:103DF00077956795BA95C9F700976105710508959C
:103E00009B01AC010A2E0694579547953795279547
:103E1000BA95C9F7620F731F841F951FA01D0895DF
:103E20002F923F924F925F926F927F928F929F92CA
:103E3000AF92BF92CF92DF92EF92FF920F931F93B8
:103E4000CF93DF93CDB7DEB7CA1BDB0B0FB6F89469
:103E5000DEBF0FBECDBF09942A88398848885F84A9
:103E60006E847D848C849B84AA84B984C884DF801A
:103E7000EE80FD800C811B81AA81B981CE0FD11DFE
:103E80000FB6F894DEBF0FBECDBFED010895F894D4
:023E9000FFCF62
:103E9200C1EBEEEA3A2575205B25755D00C1EBEEBC
:103EA200EA3A2575205B305D00C2FBEFEEEBEDE5F3
:103EB200EDEE3A25692025250025303578203D2074
:103EC2005B25303278202C20253032785D00005B73
:103ED200253032753A253035755D20D4E0E9EB00A6
:103EE2005B253032753A253035755D20CFE0EFEA3B
:103EF200E0003E20CCE0E3EDE8F2EEF4EEED2078D7
:103F020031203C003E20CCE0E3EDE8F2EEF4EEEDB1
:103F1200207832203C003E20CCE0E3EDE8F2EEF4E3
:103F2200EEED207834203C003E2020D2E5F1F22054
:103F3200EFE0ECFFF2E820203C0000256920CCC134
:083F420000000200FFFFFFFF79
:00000001FF
