:100000000C9405010C9422010C9422010C94220101
:100010000C9422010C9422010C9422010C942201D4
:100020000C9422010C944D010C9422010C94220199
:100030000C9422010C9422010C9422010C942201B4
:100040000C9422010C9422010C9422010C942201A4
:100050000C942201202020D2E5F1F220EFE0ECFF09
:10006000F2E82020000020CEF8E8E1EAE020EFE00E
:10007000ECFFF2E820210000CFE0ECFFF2FC20E8EA
:10008000F1EFF0E0E2EDE0200000CDE5F220F4E059
:10009000E9EBEEE220746170202100002020202096
:1000A000C2FBE1E5F0E8F2E5202020200000C0419D
:1000B000C1A0C242C3A1C4E0C545A8A2C6A3C7A4AB
:1000C000C8A5C9A6CA4BCBA7CC4DCD48CE4FCFA80B
:1000D000D050D143D254D3A9D4AAD558D6E1D7AB66
:1000E000D8ACD9E2DAADDBAEDC62DDAFDEB0DFB1D9
:1000F000E061E1B2E2B3E3B4E4E3E565B8B5E6B6E6
:10010000E7B7E8B8E9B9EABAEBBBECBCEDBDEE6F16
:10011000EFBEF070F163F2BFF379F4E4F578F6E541
:10012000F7C0F8C1F9E6FAC2FBC3FCC4FDC5FEC6C0
:10013000FFC7CAE0F0F2E020EFE0ECFFF2E820EDCC
:10014000E5200000EFEEE4E4E5F0E6E8E2E0E5F2C9
:10015000205350490000CAE0F0F2E020ECEEEBF74B
:10016000E8F2212020200000CEE1FAE5EC20534403
:100170002DEAE0F0F2FB20200000EDE520EEEFF0AC
:10018000E5E4E5EBE5ED212020200000CEE1FAE5F5
:10019000EC2053442DEAE0F0F2FB20200000204642
:1001A00041542020EDE520EDE0E9E4E5EDE000003C
:1001B000202020CDE0E9E4E5ED204D425220202032
:1001C0000000D2E8EF20F42E20F1E8F1F2E5ECFB9C
:1001D0002020000046415431322D20EEF8E8E1EABB
:1001E000E0212020000046415431362D20EEEA2E39
:1001F000202020202020000046415433322D20EEC4
:10020000F8E8E1EAE0212020000011241FBECFE53C
:10021000D4E0DEBFCDBF11E0A0E6B0E0E4E9FCE34E
:1002200002C005900D92A831B107D9F712E0A8E1FC
:10023000B1E001C01D92A03BB107E1F70E940806A2
:100240000C94481E0C94000020ED37E040E951E08A
:10025000CA010197F1F721503040D1F7839906C0C8
:10026000819904C0829902C0849BF8CF0895F894C4
:100270001ABA17BA11BA14BA8B9889988A988C98B6
:10028000889A8FEF8BBB88BB82BB85BB83E083BF23
:1002900012BE81E089BF909808951F920F920FB609
:1002A0000F9211242F933F934F935F936F937F93FC
:1002B0008F939F93AF93BF93EF93FF9312BE809161
:1002C0001E01843009F44BC080911F01882309F07E
:1002D00042C0909881E080931F0180911E01882385
:1002E000E1F4809152012EE830E002C03595279567
:1002F0008A95E2F7209522BF80911C0190911D0103
:10030000181619060CF06BC080911C0190911D010C
:10031000019790931D0180931C0180911E018130F3
:1003200001F180911E01823059F180911E018330CC
:1003300009F43EC0FF91EF91BF91AF919F918F91D2
:100340007F916F915F914F913F912F910F900FBED1
:100350000F901F901895909A10921F01BECF909801
:10036000E9CF809152012BE230E002C0359527950C
:100370008A95E2F7209522BF82E080931E01DACFB2
:100380002091520180E390E002C0959587952A95CF
:10039000E2F7809582BF83E080931E0180E1809325
:1003A0002201109223011092210110922001C2CF4C
:1003B00030912201303170F1609120017091210162
:1003C00080911801909119016817790760F084E015
:1003D00080931E0110921B0110921A01ABCF81E095
:1003E00080931E01A7CF1092220180E090E00E942E
:1003F000060E8093230180912001909121010196A6
:10040000909321018093200190931B0180931A0106
:10041000309122014091230147FD14C020915201E7
:1004200088E390E002C0959587952A95E2F780953C
:1004300082BF30FF03C0440F409323013F5F3093DE
:10044000220178CF2091520180E790E002C095957B
:1004500087952A95E2F7809582BFEBCF2F923F9246
:100460005F926F927F928F929F92AF92BF92CF9244
:10047000DF92EF92FF920F931F93CF93DF9328E8C1
:1004800033E140E951E0CA010197F1F721503040D2
:10049000D1F7EE24FF2443E5A42E41E0B42E30E64C
:1004A000832E30E0932E20E7622E27E1722E95E313
:1004B000592EC0E9D1E08DE6282E80E0382E88E163
:1004C00091E0B7010E94E815882309F493C0670101
:1004D0000894C11CD11C2DB73EB7285030400FB630
:1004E000F8943EBF0FBE2DBFEDB7FEB73196ADB746
:1004F000BEB71296BC92AE92119793828282D58239
:10050000C4828091180190911901978386830E947B
:10051000701B2DB73EB7285F3F4F0FB6F8943EBF14
:100520000FBE2DBFC5010E942D0712BE8091520142
:10053000D30102C0AA0FBB1F8A95E2F7B0931D0139
:10054000A0931C0110921E0110921F0110921B011A
:1005500010921A01789400E010E0F8940E949E0D29
:1005600080911E01843009F49EC0209118013091C1
:10057000190140911A0150911B0180911E0178943C
:10058000833009F439C0852D8A95F1F784993FC0ED
:10059000829B14C0F89420ED37E0CE010197F1F76B
:1005A00021503040D1F7829BFECF789420ED37E088
:1005B000CE010197F1F721503040D1F78399C8C09F
:1005C000819BCBCF20ED37E0CE010197F1F7215091
:1005D0003040D1F7E114F10409F038C0CC24DD2417
:1005E000F894760188E191E0B7010E94E81588232C
:1005F00009F06DCF90980DC085E70033180759F1C9
:100600000F5F1F4F852D8A95F1F7849BC1CFF8941A
:100610009098DF91CF911F910F91FF90EF90DF9015
:10062000CF90BF90AF909F908F907F906F905F9092
:100630003F902F90089520ED37E0CE010197F1F71C
:1006400021503040D1F7E114F10451F267010894D0
:10065000C108D108C5CFADB7BEB718970FB6F8948B
:10066000BEBF0FBEADBFEDB7FEB731961296BC92BE
:10067000AE92119793828282D582C482241B350B5D
:10068000378326830E94701B2DB73EB7285F3F4FEC
:100690000FB6F8943EBF0FBE2DBFC5010E942D07B7
:1006A00000E010E070CF00D000D000D0EDB7FEB772
:1006B0003196ADB7BEB71296BC92AE921197338207
:1006C0002282D582C4820E94701B2DB73EB72A5F5A
:1006D0003F4F0FB6F8943EBF0FBE2DBFC5010E941D
:1006E0002D078091180190911901449708F439C0A1
:1006F00064EF71E080E49CE90197F1F784997ACF87
:1007000040E050E0829B12C020ED37E0CE0101971F
:10071000F1F721503040D1F7829BFECF20ED37E03A
:10072000CE010197F1F721503040D1F783991CC0D9
:10073000819981CF4F5F5F4F4617570708F050CF21
:1007400080E49CE90197F1F7849BDCCF909861CF1E
:1007500020ED37E0CE010197F1F721503040D1F77D
:100760003FCF68EC70E0C6CF20ED37E0CE010197B7
:10077000F1F721503040D1F733CF2F923F924F9273
:100780005F926F927F928F929F92AF92BF92CF9221
:10079000DF92EF92FF920F931F93CF93DF9384E545
:1007A00090E00E940F081FEF442455243201BB241F
:1007B000C3E5D1E059E7252E50E0352EC301B20143
:1007C0002FEF30E040E050E00E944E1B822E2117B8
:1007D000E9F000D000D000D0EDB7FEB73196ADB74C
:1007E000BEB71296DC93CE93119733822282248374
:1007F00015820E94701B8DB79EB706960FB6F894AF
:100800009EBF0FBE8DBFCE010E949E07EE24FF2427
:1008100087014B2D4E0DC801B7010E94200E0E948A
:100820009E0D0894E11CF11C011D111D90E0E916BC
:1008300090E0F90692E0090790E0190751F7CC24FF
:10084000DD2476010FC00894C11CD11CE11CF11CF1
:1008500090E0C91690E0D90692E0E90690E0F9062A
:1008600009F454C09B2C9C0CC701B6010E94060ED3
:10087000A82E0E949E0DA91431F386E690E00E94F6
:100880000F08ADB7BEB71A970FB6F894BEBF0FBE2C
:10089000ADBFEDB7FEB7319603E511E012961C939C
:1008A0000E93119789E890E093838283D582C48266
:1008B00096821782A08611860E94701B8DB79EB704
:1008C0000A960FB6F8949EBF0FBE8DBFC8010E9456
:1008D0009E0720E533EC40E951E0CA010197F1F7AA
:1008E00021503040D1F7DF91CF911F910F91FF90B0
:1008F000EF90DF90CF90BF90AF909F908F907F90C0
:100900006F905F904F903F902F90089584E690E015
:10091000A0E0B0E0480E591E6A1E7B1EB394182D4D
:1009200090E0491694E6590690E0690690E0790651
:1009300009F044CF88E790E00E940F088EE990E02C
:100940000E949E0720E335E740E951E0CA01019784
:10095000F1F721503040D1F7C6CF2F923F924F92FE
:100960005F926F927F929F92AF92BF92CF92DF92EF
:10097000EF92FF920F931F93DF93CF93CDB7DEB724
:100980002B970FB6F894DEBF0FBECDBF0E94AC18F8
:10099000882309F40FC181E090E0909325018093B2
:1009A000240121E0A22EB12C992493E0292E312C90
:1009B0002C0E3D1E82E0482E512C4C0E5D1E3E0139
:1009C0000894611C711C00E9C02E01E0D02E83E563
:1009D00091E0BE016C5F7F4FAE01485F5F4F9101B8
:1009E000830172010E94C213882309F092C08B8197
:1009F000882309F078C08DB79EB708970FB6F89492
:100A00009EBF0FBE8DBFEDB7FEB7319683E591E077
:100A1000ADB7BEB712969C938E931197AFE9B0E035
:100A2000B383A28394821582B782A6820E94701B30
:100A3000EDB7FEB738960FB6F894FEBF0FBEEDBF08
:100A400083E591E00E942D0720ED37E0C601019774
:100A5000F1F721503040D1F783996FC081997FC061
:100A6000849BFACF8B81882309F458C0F3E1F915F0
:100A700040F0E92DF0E0EE0FFF1FEC5DFE4FB1827C
:100A8000A08287FD7EC0939493E1991508F44BC032
:100A9000092D10E0000F111FF801EC5DFE4FA1E0E1
:100AA000B0E0B183A0836C817D818E819F810E94A3
:100AB0006F19F801EC5DFE4F80819181029708F477
:100AC0006CC001E010E07F0108C00F5F1F4FF7010D
:100AD000808191810817190720F40E940618882345
:100AE000A1F7580174CF8DB79EB708970FB6F89449
:100AF0009EBF0FBE8DBFEDB7FEB7319683E591E087
:100B0000ADB7BEB712969C938E931197A0EBB0E051
:100B100087CF83E591E00E949E0769CF0E942E0255
:100B20008501580154CF6C817D818E819F810E9407
:100B30006F1901E010E058014ACF829B35C01AE0DE
:100B4000F12E850106C0015010408A2D801B8F15A3
:100B500040F60E9460178823B1F7580138CF829B76
:100B600020C0BAE0FB2E85010E940618882309F4F4
:100B7000B8CF0F5F1F4F802F8A198F15A8F3580128
:100B800026CF9920A1F09A946C817D818E819F81DE
:100B90000E946F1983E18915B0F501E010E058015A
:100BA00016CFFF24F394DFCFFF24F394CACF00E0E5
:100BB00010E079CF8AE890E00E940F088EE990E07B
:100BC0000E949E0780E29EE420E931E0F90131971E
:100BD000F1F70197D9F72B960FB6F894DEBF0FBE49
:100BE000CDBFCF91DF911F910F91FF90EF90DF90DC
:100BF000CF90BF90AF909F907F906F905F904F90FD
:100C00003F902F900895092D10E0000F111F51CF34
:100C10001F93CF93DF930E9437010E948F0D0E9494
:100C2000E6060E94210C0E94C61010E0C0E9D1E047
:100C30008CE990E00E940F08112399F1113009F41A
:100C400044C0123009F44BC0133049F4A3E5B1E0BD
:100C5000E8EFF0E082E101900D928150E1F783E549
:100C600091E00E949E0728E833E1CE010197F1F759
:100C700021503040D1F783993CC081993EC0849B7C
:100C8000FACF1123E9F01130B1F01230A1F0133096
:100C900079F60E94BD038CE990E00E940F081123B1
:100CA00069F6A3E5B1E0E2ECF0E082E101900D929B
:100CB0008150E1F7D4CF109352010E94AD04B8CF18
:100CC000109252010E94AD04B3CFA3E5B1E0E4ED70
:100CD000F0E082E101900D928150E1F7C0CFA3E5F1
:100CE000B1E0E6EEF0E082E101900D928150E1F793
:100CF000B6CF112331F011509BCF133021F01F5F7D
:100D000097CF13E095CF10E093CFAD98AC98AB9808
:100D1000AA98AE9A45B3282F26952695269530E0B9
:100D200021703070220F331F22953295307F322789
:100D3000207F3227422B45BB45B3282F2695269589
:100D400030E02170307022953295307F3227207F3D
:100D50003227422B45BB45B3282F269530E0217022
:100D60003070220F331F220F331F220F331F422BED
:100D700045BB25B390E081709070880F991F880F54
:100D8000991F282B25BB80E991E0FC013197F1F7F1
:100D9000AE980197F1F708951F93182FAF9A829597
:100DA0008F700E948506812F8F700E9485061F918B
:100DB00008951F93182FAF9882958F700E94850613
:100DC000812F8F700E9485061F9108950F931F93A6
:100DD000A79AA69AA59AA49AA39AA29A28EC30E078
:100DE00040E951E0CA010197F1F721503040D1F7B5
:100DF000AF9883E00E94850680E29EE40197F1F7B8
:100E000083E00E94850680E293E00197F1F783E09A
:100E10000E94850682E00E9485068CE20E94D90627
:100E200000EA1FE0C8010197F1F788E00E94D906A7
:100E3000C8010197F1F781E00E94D906C801019726
:100E4000F1F786E00E94D9068CE00E94D906C8011D
:100E50000197F1F71F910F910895AF92BF92CF9232
:100E6000DF92EF92FF920F931F93DF93CF93CDB753
:100E7000DEB760970FB6F894DEBF0FBECDBFE82E89
:100E8000192F80E80E94D90680E991E00197F1F7D7
:100E90006E010894C11CD11C8E2D912F9C01A901BB
:100EA000D601E1E1AE2EB12CAC0EBD1EFA012081BF
:100EB0002C9380E090E004C002968438910559F0AC
:100EC000FC01E255FF4FE4912E17B1F781559F4F7A
:100ED000FC0184918C934F5F5F4F1196AA15BB055F
:100EE00029F78E2D912F9C018901F02EFE18F80113
:100EF00080818823F9F0F60181916F010E94CC0670
:100F00000F5F1F4FAC14BD0481F760960FB6F894C5
:100F1000DEBF0FBECDBFCF91DF911F910F91FF902C
:100F2000EF90DF90CF90BF90AF90089580E20E9445
:100F3000CC06F394FFE0FF15C8F7E7CFAF92BF925E
:100F4000CF92DF92EF92FF920F931F93DF93CF9395
:100F5000CDB7DEB760970FB6F894DEBF0FBECDBF3A
:100F6000E82E192F88EA0E94D90680E991E00197BE
:100F7000F1F76E010894C11CD11C8E2D912F9C019C
:100F8000A901D601F1E1AF2EB12CAC0EBD1EFA01C4
:100F900020812C9380E090E004C002968438910573
:100FA00059F0FC01E255FF4FE4912E17B1F781553E
:100FB0009F4FFC0184918C934F5F5F4F1196AA1550
:100FC000BB0529F78E2D912F9C018901F02EFE186B
:100FD000F80180818823F9F0F60181916F010E9468
:100FE000CC060F5F1F4FAC14BD0481F760960FB69F
:100FF000F894DEBF0FBECDBFCF91DF911F910F914F
:10100000FF90EF90DF90CF90BF90AF90089580E277
:101010000E94CC06F394FFE0FF15C8F7E7CFAF922C
:10102000BF92CF92DF92EF92FF920F931F93DF93C5
:10103000CF93CDB7DEB760970FB6F894DEBF0FBE83
:10104000CDBFE82E192F80E80E94D90680E991E0F3
:101050000197F1F76E010894C11CD11C8E2D912FC0
:10106000FC01AF01D60101E1A02EB12CAC0EBD1EDA
:10107000FA0124912C9380E090E004C00296843819
:10108000910559F0FC01E255FF4FE4912E17B1F79D
:1010900081559F4FFC0184918C934F5F5F4F119658
:1010A000AA15BB0529F78E2D912FFC018F01F02E7B
:1010B000FE18F80184918823F9F0F60181916F01FF
:1010C0000E94CC060F5F1F4FAC14BD0481F76096E1
:1010D0000FB6F894DEBF0FBECDBFCF91DF911F9149
:1010E0000F91FF90EF90DF90CF90BF90AF90089559
:1010F00080E20E94CC06F394FFE0FF15C8F7E7CF2B
:10110000AF92BF92CF92DF92EF92FF920F931F9315
:10111000DF93CF93CDB7DEB760970FB6F894DEBFFD
:101120000FBECDBFE82E192F88EA0E94D90680E9AC
:1011300091E00197F1F76E010894C11CD11C8E2D2E
:10114000912FFC01AF01D60181E1A82EB12CAC0E8C
:10115000BD1EFA0124912C9380E090E004C0029619
:101160008438910559F0FC01E255FF4FE4912E17A8
:10117000B1F781559F4FFC0184918C934F5F5F4F76
:101180001196AA15BB0529F78E2D912FFC018F0111
:10119000F02EFE18F80184918823F9F0F601819170
:1011A0006F010E94CC060F5F1F4FAC14BD0481F786
:1011B00060960FB6F894DEBF0FBECDBFCF91DF9122
:1011C0001F910F91FF90EF90DF90CF90BF90AF9065
:1011D000089580E20E94CC06F394FFE0FF15C8F763
:1011E000E7CF0F931F93CF93DF93EC01342F6F5F03
:1011F000641B61F140E050E0A0E0B0E00FE010E0DF
:10120000232F2A0F822F869586958695F801E81B55
:10121000F109EC0FFD1F808190E0277002C09595C9
:1012200087952A95E2F7817090700A2E02C0880F88
:10123000991F0A94E2F7482B592B1196A61700F331
:10124000CA01DF91CF911F910F91089540E050E0C6
:10125000F7CFCF92DF92EF920F93DF93CF9300D02F
:1012600000D00F92CDB7DEB7982FD6018FEF8FB990
:10127000779BFECF8FB18FEF8FB9779BFECF8FB16A
:1012800099830A832B834C836D83FE01319620E082
:10129000BE016A5F7F4F49E030813FB9779BFECF47
:1012A0008FB190E001C0330F220F822F832787FD7B
:1012B00024279F5F9830B9F73196E617F70761F753
:1012C000220F21602FB9779BFECF8FB120E030E055
:1012D0004FEF95E34FB9779BFECF8FB187FF0BC0E0
:1012E000892F8A95F1F72F5F3F4F8FEF2F3F3807F8
:1012F00089F780E01FC08C932F5F3F4FD1F34E2DB5
:1013000050E04230510580F021E030E09FEF9FB97E
:10131000779BFECF8FB1FD01E20FF31F80832F5F1C
:101320003F4F2417350798F38FEF8FB9779BFECF88
:101330008FB181E00F900F900F900F900F90CF9191
:10134000DF910F91EF90DF90CF900895FC01809195
:1013500011019091120180509240A0F48FEF8FB94B
:10136000779BFECF8FB18083809111019091120104
:10137000019690931201809311018050924021F0C8
:1013800081E0089580E008958FEF8FB9779BFECFBD
:101390008FB18FEF8FB9779BFECF8FB181E008952A
:1013A0003F924F925F926F927F928F929F92AF92F5
:1013B000BF92CF92DF92EF92FF920F931F93DF9332
:1013C000CF9300D000D0CDB7DEB73B014C012A014E
:1013D000322E2DB73EB73C832B8380914C01843055
:1013E00039F039E0660C771C881C991C3A95D1F7C6
:1013F0000F928DB79EB701969A8389835527492D01
:10140000382D272D740100271127A92CBB24CC24AB
:10141000DD2481E5662D422F2E2D0A2DEE24E39446
:10142000C980DA800E9429098823E9F0E981FA81DC
:1014300080818823C1F48FEF8FB9779BFECF8FB166
:1014400020E030E09FEF45E39FB9779BFECF8FB15F
:101450008E3F39F1842F8A95F1F72F5F3F4FFFEFD1
:101460002F3F3F0789F780E02B813C810FB6F8942E
:101470003EBF0FBE2DBF0F900F900F900F90CF91DA
:10148000DF911F910F91FF90EF90DF90CF90BF9071
:10149000AF909F908F907F906F905F904F903F9014
:1014A000089580E090E03FEF3FB9779BFECF2FB1EA
:1014B0003320C1F08F3F910509F018F4F201219318
:1014C0002F010196F2E080309F0771F78FEF8FB9FF
:1014D000779BFECF8FB18FEF8FB9779BFECF8FB108
:1014E00081E0C2CF8F3F910561F358F3E7CF2F9290
:1014F0003F924F925F926F927F928F929F92AF92A4
:10150000BF92CF92DF92EF92FF920F931F93DF93E0
:10151000CF93CDB7DEB73B014C012DB63EB68091DF
:101520004C01843039F079E0660C771C881C991CDA
:101530007A95D1F70F924DB65EB60894411C511CB6
:101540005527492D382D272D740100271127A92C47
:10155000BB24CC24DD2481E5662D422F2E2D0A2DBF
:10156000EE24E39462010E9429098823E1F0F2014C
:1015700080818823C1F48FEF8FB9779BFECF8FB125
:1015800020E030E04FEF95E34FB9779BFECF8FB16E
:101590008E3F11F1892F8A95F1F72F5F3F4FFFEFB3
:1015A0002F3F3F0789F780E00FB6F8943EBE0FBE8D
:1015B0002DBECF91DF911F910F91FF90EF90DF90A3
:1015C000CF90BF90AF909F908F907F906F905F90E3
:1015D0004F903F902F900895109212011092110198
:1015E00081E0E2CF8F929F92AF92BF92CF92DF9233
:1015F000EF92FF920F931F93DF93CF93CDB7DEB798
:1016000060970FB6F894DEBF0FBECDBF4C01ADB6EC
:10161000BEB60F92CDB6DEB60894C11CD11C89E4CB
:1016200060E040E020E000E0EE24E3940E9429091D
:10163000882371F080E090E03FEF3FB9779BFECFC9
:101640002FB12F3FF1F401962FEF8F3F9207A9F7AB
:1016500080E00FB6F894BEBE0FBEADBE60960FB66A
:10166000F894DEBF0FBECDBFCF91DF911F910F91D8
:10167000FF90EF90DF90CF90BF90AF909F908F90B2
:1016800008952E3F09F4ACC0298321E030E06E01BB
:101690000894C11CD11CF601E20FF31F9FEF9FB904
:1016A000779BFECF8FB181932F5F3F4F2031310564
:1016B000B0F380914C01843009F495C08E81482F9D
:1016C00050E000E010E020E030E0C9018770907049
:1016D000BA0102C0759567958A95E2F7CB018170D2
:1016E0009070022E02C0880F991F0A94E2F7082B0F
:1016F000192B2F5F3F4F2430310539F7A0E0B0E0C0
:101700004EE350E06FE070E0842F869586958695D5
:10171000FB01E81BF109EC0DFD1D808190E09A01B1
:101720002770307002C0959587952A95E2F78170F1
:1017300090704E535040042E02C0880F991F0A9497
:10174000E2F7A82BB92B415C5F4F4A345105E1F613
:1017500060E070E04FE250E0EFE0EE2EF12C842FDD
:10176000869586958695F701E81BF109EC0DFD1D20
:10177000808190E09A012770307002C0959587951E
:101780002A95E2F7817090704F525040042E02C0AB
:10179000880F991F0A94E2F7682B792B405D5F4F01
:1017A00042335105E1F6CD01A0E0B0E00196A11D64
:1017B000B11D6E5F7F4F04C0880F991FAA1FBB1F0A
:1017C0006A95D2F704C0880F991FAA1FBB1F0A95FC
:1017D000D2F7F40180839183A283B38381E039CF70
:1017E00020E030E054CF60E070E040E350E0AFE054
:1017F000B0E0842F869586958695FD01E81BF1095A
:10180000EC0DFD1D808190E09A012770307002C0C0
:10181000959587952A95E2F78170907040535040D6
:10182000042E02C0880F991F0A94E2F7682B792BC7
:101830004F5C5F4F46345105E1F6CB01A0E0B0E0CC
:10184000C8CF8F929F92AF92BF92CF92DF92EF92CA
:10185000FF920F931F93DF93CF9300D000D0CDB7AB
:10186000DEB78DB69EB68AE091E00E942D078AE031
:1018700091E00E949E07BC9ABD9ABF9ABE9820E153
:1018800037E240E951E0CA010197F1F721503040B9
:10189000D1F7C49A28E833E140E951E0CA01019741
:1018A000F1F721503040D1F7C59A20E040EA5FE0DF
:1018B000C79ACA010197F1F7C798CA010197F1F7D2
:1018C0002F5F2A3FA9F7C49880E58DB981E08EB9D2
:1018D00028EE33E040E951E0CA010197F1F72150C9
:1018E0003040D1F700D000D00F92ADB6BEB608940C
:1018F000A11CB11C1A2DFB2C80E460E040E020E02C
:1019000000E0EE24E39465010E942909882321F078
:10191000D5018C91813049F082E391E00E940F085B
:1019200084E491E00E948008FFCF10924C0188E48B
:101930006AEA41E020E000E055E0E52E65010E9402
:101940002909882321F0F50180818130D9F181E4D2
:1019500060E040E020E000E0EE24E394C12EDF2CC4
:101960000E942909882399F3F5018081882379F75A
:1019700080914C01813019F082E080934C0180E528
:1019800060E040E022E000E0EE24E394C12EDF2C92
:101990000E94290980914C01843009F459C01982B0
:1019A0001A821B821C82CE0101960E94F20A8823B1
:1019B000B1F488E691E00E940F088AE791E00E9466
:1019C0008008FFCF83818F70813021F484818A3A2F
:1019D00009F464C086E591E00E940F08FFCF00D0B3
:1019E00000D000D0EDB7FEB7319603E511E0ADB7FA
:1019F000BEB712961C930E9311978BE091E09383E0
:101A0000828389819A81AB81BC8124E1B695A795B7
:101A1000979587952A95D1F7958384830E94701BAB
:101A2000EDB7FEB736960FB6F894FEBF0FBEEDBF0A
:101A30008CE891E00E940F08C8010E949E0780E197
:101A400097E220E931E0F9013197F1F70197D9F7F1
:101A500080E090E02FEF2FB9779BFECF3FB101964A
:101A6000F4E080309F07B9F70FB6F8949EBE0FBE22
:101A70008DBE0F900F900F900F90CF91DF911F911F
:101A80000F91FF90EF90DF90CF90BF90AF909F901D
:101A90008F900895F5018081882321F187E760E028
:101AA00040E020E000E0EE24E394C12EDF2C0E9411
:101AB0002909882391F0D5018C91823070F481E45A
:101AC00060E040E020E000E4EE24E394C12EDF2C4F
:101AD0000E942909882311F3DDCF86E591E00E9459
:101AE0000F08FFCF8AE760E040E020E000E035E04B
:101AF000E32E0E942909882349F0D50111968C9183
:101B000086FF09C084E080934C0139CF86E591E0DF
:101B10000E940F08FFCF83E080934C0130CF8D9A55
:101B20008F9A8E9AA09A8FEF8ABBA19A87B3807FF3
:101B300087BB959A979A969AA89A089597980000C5
:101B4000000095980000000000000000979A000037
:101B50000000959A08950F931F9327B3207F27BB0A
:101B6000A89A6BBBA99855B38C0122273327017023
:101B7000000F052B05BB9598672F782F892F992784
:101B80006BBBA998442309F4A99A97980000000018
:101B9000A8980000000086B3A89A979A979A959AF9
:101BA0008F701F910F910895EF92FF920F931F93E3
:101BB000A89A37B33F6037BB6BBBA99835B37C019C
:101BC0000027112751E0E522EE0CE32AE5BA9598AB
:101BD000000096980000672F782F892F99276BBBFC
:101BE000A998222309F4A99A88B3807F88BB88B377
:101BF0004F70842B88BB979800000000969A979AA4
:101C0000959A1F910F91FF90EF900895DF92EF92B8
:101C1000FF920F931F937B018C0140E00E94AB0D5C
:101C2000D82ED294F0EFDF22C801B70141E00E9424
:101C3000AB0D8D291F910F91FF90EF90DF900895CC
:101C4000DF92EF92FF920F931F937B018C01D42EB2
:101C500042954F7020E00E94D40D8FE0D822C80139
:101C6000B7014D2D21E00E94D40D1F910F91FF90DF
:101C7000EF90DF900895EF92FF920F931F937B01F7
:101C80008C0180914D0190914E01A0914F01B09136
:101C90005001E80EF91E0A1F1B1F5527412F302F38
:101CA0002F2D8091140190911501A0911601B091F2
:101CB0001701281739074A075B0701F12093140120
:101CC000309315014093160150931701BA01A901F1
:101CD000769567955795479520E0D801C701917093
:101CE000A070B0708F3F9105A105B105A1F098F0EB
:101CF000CB01BA014CE651E00E94D009F701F07027
:101D0000E459FE4F608170E080E090E01F910F91F8
:101D1000FF90EF90089521E0EBCFAF92BF92CF926A
:101D2000DF92EF92FF920F931F935B016C016D5F47
:101D30007F4F8F4F9F4F0E943B0EEE24F62E072FB2
:101D4000182FC601B5016E5F7F4F8F4F9F4F0E94C6
:101D50003B0EE62AF72A082B192B102F0F2DFE2CED
:101D6000EE24C601B5016F5F7F4F8F4F9F4F0E94DA
:101D70003B0EE62AF72A082B192B102F0F2DFE2CCD
:101D8000EE24C601B5010E943B0E9B01AC012E2939
:101D90003F29402B512BB901CA011F910F91FF9090
:101DA000EF90DF90CF90BF90AF900895AF92BF9229
:101DB000CF92DF92EF92FF920F931F935B016C0122
:101DC0006F5F7F4F8F4F9F4F0E943B0EEE24F62E8A
:101DD000072F182FC601B5010E943B0E9B01AC01D5
:101DE0002E293F29402B512BB901CA011F910F9178
:101DF000FF90EF90DF90CF90BF90AF9008952F921B
:101E00003F924F925F926F927F928F929F92AF928A
:101E1000BF92CF92DF92EF92FF920F931F93CF93D7
:101E2000DF93EC018C819D81AE81BF818097A109F8
:101E3000B1098C839D83AE83BF83288939894A8900
:101E40005B8982179307A407B50708F0B4C02881FF
:101E500039814A815B818091AC029091AD02A09161
:101E6000AE02B091AF02281739074A075B0709F4A1
:101E7000B6C0288439844A845B8437C0EE24FF24AA
:101E80008701609198027091990280919A029091D5
:101E90009B02209178023091790240917A02509110
:101EA0007B020E942F1BE60EF71E081F191FC80198
:101EB000B7010E94D60E7B018C01DC01CB01039798
:101EC000A109B109855F9F4FA040B04008F087C0CD
:101ED0008C859D85AE85BF85E816F9060A071B0728
:101EE00079F0C701D8011C012D0180915101813089
:101EF00029F682017101EE0CFF1C001F111FC1CFDA
:101F0000D201C1010397A109B109855F9F4FA0408C
:101F1000B04008F064C02C863D864E865F86609097
:101F20007002709071028090720290907302A09083
:101F30009802B0909902C0909A02D0909B028EEFC6
:101F40009FEFAFEFBFEF280E391E4A1E5B1EC20186
:101F5000B101A40193010E942F1B9B01AC01609170
:101F60006C0270916D0280916E0290916F02620F0F
:101F7000731F841F951FA60195010E942F1B7B01D3
:101F80008C01688B798B8A8B9B8BC601B501A40170
:101F900093010E942F1B6E0D7F1D801F911F6C8B64
:101FA0007D8B8E8B9F8B60527040804090406C8305
:101FB0007D838E839F8381E0DF91CF911F910F916D
:101FC000FF90EF90DF90CF90BF90AF909F908F9059
:101FD0007F906F905F904F903F902F90089580E09A
:101FE000EBCF6F927F928F929F92AF92BF92CF92E0
:101FF000DF92EF92FF920F931F93CF93DF93EC0149
:102000008C819D81AE81BF818096A11DB11D8C8385
:102010009D83AE83BF832C893D894E895F8982175A
:102020009307A407B50708F4A1C0288139814A8124
:102030005B818091AC029091AD02A091AE02B09113
:10204000AF02281739074A075B0721F08091510139
:10205000813011F080E08BC06091980270919902FC
:1020600080919A0290919B0220917802309179029E
:1020700040917A0250917B020E942F1B9B01AC0180
:102080006C857D858E859F85660F771F881F991FBC
:10209000620F731F841F951F0E94D60E9B01AC0117
:1020A0006115710581059105A9F28091A0029091B9
:1020B000A102A091A202B091A3020296A11DB11D9E
:1020C000281739074A075B0728F6283F8FEF38079C
:1020D00080E0480780E0580708F0BCCF2C873D8798
:1020E0004E875F87609070027090710280907202DC
:1020F00090907302A0909802B0909902C0909A02BA
:10210000D0909B022250304040405040CA01B9015B
:10211000A40193010E942F1B9B01AC0160916C02F2
:1021200070916D0280916E0290916F02620F731F29
:10213000841F951FA60195010E942F1B7B018C0116
:102140006C837D838E839F83688B798B8A8B9B8B3B
:10215000C601B501A40193010E942F1B6E0D7F1DC6
:10216000801F911F6C8B7D8B8E8B9F8B81E0DF910D
:10217000CF911F910F91FF90EF90DF90CF90BF9084
:10218000AF909F908F907F906F900895AF92BF9285
:10219000CF92DF92EF92FF920F931F93DF93CF9333
:1021A00000D000D0CDB7DEB783E191E00E942D07CB
:1021B00083E191E00E949E078FEF9FEFAFEFBFEFAB
:1021C0008093140190931501A0931601B093170109
:1021D00010924D0110924E0110924F011092500139
:1021E00060E070E080E090E00E943B0E6B3E11F0FA
:1021F000693E81F46EEF71E080E090E00E943B0E5A
:102200006535710581059105B1F08EE991E00E9477
:102210008008FFCF6EEF71E080E090E00E943B0EFF
:10222000653571058105910509F40BC28EE991E0D0
:102230000E948008FFCF6FEF71E080E090E00E9485
:102240003B0E6A3A710581059105F9F68FEF9FEF14
:10225000AFEFBFEF8093140190931501A093160187
:10226000B09317016DE070E080E090E00E943B0EBB
:102270006093700270937102809372029093730264
:102280006BE070E080E090E00E94D60E60939802D0
:102290007093990280939A0290939B026EE070E093
:1022A00080E090E00E94D60E6093780270937902ED
:1022B00080937A0290937B0261E170E080E090E08D
:1022C0000E94D60E209198023091990240919A0274
:1022D00050919B0279018A010894E108F1080109F3
:1022E0001109660F771F881F991F660F771F881FB8
:1022F000991F660F771F881F991F660F771F881F0A
:10230000991F660F771F881F991FE60EF71E081F7B
:10231000191FC801B7010E944E1BCA01B9010E94D2
:10232000761A0E94371A0E944A1A6093A402709388
:10233000A5028093A6029093A70266E170E080E078
:1023400090E00E94D60E60937C0270937D02809391
:102350007E0290937F02611571058105910571F4EC
:1023600064E270E080E090E00E948D0E60937C0259
:1023700070937D0280937E0290937F0263E170E010
:1023800080E090E00E94D60E7B018C016115710502
:102390008105910541F460E270E080E090E00E94E8
:1023A0008D0E7B018C0160E170E080E090E00E9486
:1023B0003B0E2091A4023091A5024091A6025091BB
:1023C000A702A0907802B0907902C0907A02D090D3
:1023D0007B02E21AF30A040B150BEA18FB080C093E
:1023E0001D0920917C0230917D0240917E02509126
:1023F0007F020E942F1BE61AF70A080B190BE092C6
:102400009C02F0929D0200939E0210939F022091E5
:102410007002309171024091720250917302C801B2
:10242000B7010E944E1BCA01B9010E94761A0E9490
:10243000B31A0E944A1A6093A0027093A10280937B
:10244000A2029093A30260E170E080E090E00E941D
:102450003B0EE090A402F090A5020091A60210911C
:10246000A702209178023091790240917A0250912E
:102470007B02E20EF31E041F151F20917C02309197
:102480007D0240917E0250917F020E942F1BE60E3A
:10249000F71E081F191FE0926C02F0926D02009364
:1024A0006E0210936F021092510182EC91E00E9433
:1024B0000F088091A0029091A102A091A202B09178
:1024C000A302853FEFE09E07E0E0AE07E0E0BE0735
:1024D00008F43CC1855F9F4FA040B04008F031C177
:1024E00086EE91E00E94800880E29EE420E931E0DF
:1024F000F9013197F1F70197D9F781E08093510104
:1025000060E170E080E090E00E943B0E20917C0250
:1025100030917D0240917E0250917F020E942F1BDC
:102520007B018C018091780290917902A0917A02CE
:10253000B0917B02E80EF91E0A1F1B1FE092740285
:10254000F09275020093760210937702A0909802A1
:10255000B0909902C0909A02D0909B022091700294
:10256000309171024091720250917302C601B5011F
:102570000E942F1B6093A8027093A9028093AA0265
:102580009093AB02C601B501A80197010E942F1BD1
:102590007B018C016093AC027093AD028093AE021C
:1025A0009093AF02609380027093810280938202C5
:1025B00090938302609384027093850280938602D5
:1025C00090938702109288021092890210928A02D8
:1025D00010928B0210928C0210928D0210928E0239
:1025E00010928F022091A4023091A5024091A60280
:1025F0005091A702C601B5010E942F1B6E0D7F1DD1
:10260000801F911F609394027093950280939602AD
:1026100090939702E0929002F092910200939202BE
:10262000109393020F900F900F900F90CF91DF9126
:102630001F910F91FF90EF90DF90CF90BF90AF90E0
:1026400008956FEF71E080E090E00E943B0E6A3ADF
:1026500071058105910509F0E9CD80EB91E00E94BB
:102660000F0880E29EE420E931E0F9013197F1F7AB
:102670000197D9F75E010894A11CB11CCC24DD247C
:1026800036ECE32E31E0F32E012D112D10924D0189
:1026900010924E0110924F0110925001C801B701E3
:1026A0000E943B0E6983C801B7016F5F7F4F8F4F58
:1026B0009F4F0E943B0E6A83C801B7016E5F7F4F38
:1026C0008F4F9F4F0E943B0E6B83C801B7016D5F18
:1026D0007F4F8F4F9F4F0E943B0E6C83F50180818F
:1026E0009181A281B38129E0880F991FAA1FBB1F86
:1026F0002A95D1F780934D0190934E01A0934F01FD
:10270000B093500160E070E080E090E00E943B0EEA
:102710006B3E09F1693EF9F00894C11CD11C80E1BF
:1027200090E0A0E0B0E0E80EF91E0A1F1B1F94E045
:10273000C916D10409F0AACF8EE991E00E94800861
:10274000FFCF88EF91E00E948008FFCF84ED91E0F9
:102750000E948008FFCF6EEF71E080E090E00E9461
:102760003B0E6535710581059105B1F66FEF71E09E
:1027700080E090E00E943B0E6A3A71058105910568
:1027800059F664CD2F923F924F925F926F927F9253
:102790008F929F92AF92BF92CF92DF92EF92FF9271
:1027A0000F931F93DF93CF93CDB7DEB76A970FB622
:1027B000F894DEBF0FBECDBF5C012B011A01690189
:1027C00038014701D9011C92F8011082D7011C92EF
:1027D000009759F080E090E020E2F501E80FF91F42
:1027E000208301968B309105C1F710E0609184023F
:1027F000709185028091860290918702610F711D10
:10280000811D911D0E943B0E112331F4603209F4A9
:102810005EC0653E09F45BC0603208F458C0A11484
:10282000B10439F0183008F06CC0F501E10FF11D6A
:102830006083113009F46AC01F5F1B30B8F26091E9
:102840008402709185028091860290918702655F73
:102850007F4F8F4F9F4F0E943B0EE62EFF2463FD5C
:1028600036C0F701E071F070FA8FE98FE4FC6FC0B9
:102870006091840270918502809186029091870216
:10288000665F7F4F8F4F9F4F0E943B0E162F6091C8
:102890008402709185028091860290918702675F21
:1028A0007F4F8F4F9F4F0E943B0E062F60918402F7
:1028B000709185028091860290918702685F7F4FB8
:1028C0008F4F9F4F0E943B0E103509F410C180E0DE
:1028D0006A960FB6F894DEBF0FBECDBFCF91DF91E1
:1028E0001F910F91FF90EF90DF90CF90BF90AF902E
:1028F0009F908F907F906F905F904F903F902F9020
:102900000895F501E10FF11D618396CF6091840276
:102910007091850280918602909187020E943B0E01
:10292000162F6091840270918502809186029091A9
:1029300087026F5F7F4F8F4F9F4F0E943B0E1E326B
:1029400011F012E053CF6E3211F612E04FCF6091CA
:1029500084027091850280918602909187020E9484
:102960003B0E162F60918402709185028091860241
:10297000909187026F5F7F4F8F4F9F4F0E943B0E5A
:102980001E3209F416C181E0F6018083E2FE03C025
:1029900081E0D4018C93E1FE03C081E0F3018083E8
:1029A00060918402709185028091860290918702E5
:1029B0006C5E7F4F8F4F9F4F0E94D60E7B018C0124
:1029C00060918402709185028091860290918702C5
:1029D000665E7F4F8F4F9F4F0E94D60E8701FF2468
:1029E000EE24E62AF72A082B192BD201ED92FD924C
:1029F0000D931C93139760918402709185028091CE
:102A0000860290918702645E7F4F8F4F9F4F0E9496
:102A10008D0EF1016083718382839383A114B104CD
:102A200009F4D4C0898D9A8D892B09F45BC0F50116
:102A300014864E010894811C911CD401E0E8F2E058
:102A400088E101900D928150E1F7DD24C4010E94DC
:102A5000FF0E882309F4B4C06D817E818F81988533
:102A6000655F7F4F8F4F9F4F0E943B0E6F706F309F
:102A700009F0A6C06D817E818F8198850E943B0EF2
:102A8000C62EF1E1DF1639F1EE24FF2487016D81B6
:102A90007E818F8198856F5F7F4F8F4F9F4F6E0D27
:102AA0007F1D801F911F0E943B0EF501ED0DF11D52
:102AB0006083D39488E0E816F10401051105F1F074
:102AC00082E090E0A0E0B0E0E80EF91E0A1F1B1FB4
:102AD00090E19D15E0F6E0E1F0E0EA0DFB1D1082CB
:102AE00081E0F6CE8EE2D50118968C93A0CF01340A
:102AF00009F0EDCE643509F0EACE48CF90E19D159E
:102B000050F3EE24FF2487010BC082E090E0A0E0A8
:102B1000B0E0E80EF91E0A1F1B1F90E19D15D8F2C8
:102B20006D817E818F819885625F7F4F8F4F9F4F30
:102B30006E0D7F1D801F911F0E943B0EF501ED0D54
:102B4000F11D6083D394AAE0EA16F1040105110592
:102B5000E1F6B0E1BD1508F4BECF6D817E818F81B5
:102B60009885645E7F4F8F4F9F4F0E943B0EF5010B
:102B7000ED0DF11D60831D2D1F5F113109F4ABCFE9
:102B80006D817E818F819885625E7F4F8F4F9F4FD1
:102B90000E943B0EF501E10FF11D6083D12ED3940D
:102BA000A1E1DA1609F497CFC6FE50CFED2DF0E083
:102BB00094CF6E3209F0E7CE8FEFD6018C93E6CE3C
:102BC000B0E1BD1508F487CFDD2081F781E080CE2C
:102BD0002F923F924F925F926F927F928F929F922D
:102BE000AF92BF92CF92DF92EF92FF920F931F931B
:102BF000DF93CF93CDB7DEB768970FB6F894DEBFFB
:102C00000FBECDBF9C8B8B8B7E8B6D8BFC0111829D
:102C1000108283E591E0BE016C5F7F4FAE01485F9B
:102C20005F4F9E012F5F3F4F8E010E5F1F4FF3E0FE
:102C3000EF2EF12CEC0EFD1E0E94C213882309F426
:102C4000CDC088859985AA85BB850097A105B1056A
:102C500009F4C4C02224332421011A8A198A188A4B
:102C60001F861E861D861C860E949E0DA090A802AF
:102C7000B090A902C090AA02D090AB0228853985F5
:102C80004A855B85D201C1018A0D9B1DAC1DBD1D0E
:102C900082179307A407B50730F059016A01A218FB
:102CA000B308C408D5086C817D818E819F816250F4
:102CB00070408040904020917002309171024091AC
:102CC0007202509173020E942F1B9B01AC01609114
:102CD0006C0270916D0280916E0290916F02620F92
:102CE000731F841F951F2091980230919902409183
:102CF0009A0250919B020E942F1B3B014C01A11490
:102D0000B104C104D10409F465C0EE24FF24870195
:102D100017C0262F30E03E872D8731E03C8708948E
:102D2000E11CF11C011D111DD801C701820D931D6D
:102D3000A41DB51DEA14FB040C051D0508F048C0D0
:102D40000E949E0DC801B701660D771D881D991D53
:102D50000E943B0E462FFC85FF23D9F28C858130E3
:102D600041F18C858230D9F6EF85F8892D893E892D
:102D7000E217F30709F496C029893A892F5F3F4F7C
:102D80003A8B298B8D859E852817390740F2EF8570
:102D9000F8892D893E89E217F30709F48BC02F8546
:102DA00038892F5F3F4F388B2F871E861D861C86E4
:102DB000B6CF488F1F8AED85FE852F89388DE22B8F
:102DC000F32BFE87ED871A8A198A32E03C87A7CF5A
:102DD0001C012D01809151018130D1F080E0689675
:102DE0000FB6F894DEBF0FBECDBFCF91DF911F911C
:102DF0000F91FF90EF90DF90CF90BF90AF909F909A
:102E00008F907F906F905F904F903F902F9008959C
:102E1000609198027091990280919A0290919B0220
:102E2000209178023091790240917A0250917B0290
:102E30000E942F1B9B01AC016C817D818E819F8143
:102E4000660F771F881F991F620F731F841F951FBE
:102E50000E94D60E9B01AC0161157105810591059B
:102E600009F4BCCF8091A0029091A102A091A2028E
:102E7000B091A3020296A11DB11D281739074A0778
:102E80005B0708F0ABCF88859985AA85BB85281696
:102E900039064A065B0608F0A1CF2C833D834E839A
:102EA0005F83E2CEE989FA89BF0180E090E00E9469
:102EB000200E62CFEB89FC899183808381E08FCFE4
:102EC000EF92FF920F931F93DF93CF93CDB7DEB7AF
:102ED00068970FB6F894DEBF0FBECDBF7E01089491
:102EE000E11CF11CD701E0E8F2E088E101900D92CD
:102EF0008150E1F7C7010E94FF0E882309F45FC0EB
:102F000010E06D817E818F819885610F711D811D1B
:102F1000911D0E943B0E112321F4603259F3653E4E
:102F200049F3603238F3113009F456C01F5F1B308B
:102F300040F36D817E818F819885655F7F4F8F4FD4
:102F40009F4F0E943B0E70E063FDD4CFCB01867093
:102F50009070892B79F664FD29C06D817E818F8107
:102F60009885665F7F4F8F4F9F4F0E943B0E162FB5
:102F70006D817E818F819885675F7F4F8F4F9F4FD7
:102F80000E943B0E062F6D817E818F819885685F40
:102F90007F4F8F4F9F4F0E943B0E103509F0AACFF5
:102FA000013409F0A7CF643509F0A4CFA0E8B2E05E
:102FB000F70188E101900D928150E1F781E0689678
:102FC0000FB6F894DEBF0FBECDBFCF91DF911F913A
:102FD0000F91FF90EF9008956D817E818F8198858C
:102FE0000E943B0E162F6D817E818F8198856F5FC9
:102FF0007F4F8F4F9F4F0E943B0E1E3211F012E009
:1030000080CF6E3209F076CF12E07BCFEF92FF9245
:103010000F931F93DF93CF93CDB7DEB768970FB6AB
:10302000F894DEBF0FBECDBF7E010894E11CF11CF9
:10303000D701E0E8F2E088E101900D928150E1F7DC
:10304000C7010E94F10F882309F45FC010E06D8171
:103050007E818F819885610F711D811D911D0E9458
:103060003B0E112321F4603259F3653E49F360327F
:1030700038F3113009F456C01F5F1B3040F36D81E7
:103080007E818F819885655F7F4F8F4F9F4F0E9414
:103090003B0E70E063FDD4CFCB0186709070892B1E
:1030A00079F664FD29C06D817E818F819885665F88
:1030B0007F4F8F4F9F4F0E943B0E162F6D817E8159
:1030C0008F819885675F7F4F8F4F9F4F0E943B0E88
:1030D000062F6D817E818F819885685F7F4F8F4F2E
:1030E0009F4F0E943B0E103509F0AACF013409F022
:1030F000A7CF643509F0A4CFA0E8B2E0F70188E1DA
:1031000001900D928150E1F781E068960FB6F89436
:10311000DEBF0FBECDBFCF91DF911F910F91FF900A
:10312000EF9008956D817E818F8198850E943B0E7E
:10313000162F6D817E818F8198856F5F7F4F8F4FB6
:103140009F4F0E943B0E1E3211F012E080CF6E3274
:1031500009F076CF12E07BCF4F925F926F927F9211
:103160008F929F92AF92BF92CF92DF92EF92FF9297
:103170000F931F93DF93CF93CDB7DEB72B970FB687
:10318000F894DEBF0FBECDBFE0908002F0908102C8
:103190000091820210918302E0928402F0928502F3
:1031A0000093860210938702809188029091890291
:1031B000A0918A02B0918B0280938C0290938D0231
:1031C000A0938E02B0938F02E0929002F09291024F
:1031D00000939202109393028091AC029091AD0201
:1031E000A091AE02B091AF02E816F9060A071B07DC
:1031F00009F464C0609198027091990280919A02DA
:1032000090919B0220917002309171024091720264
:10321000509173020E942F1BE60EF71E081F191F04
:10322000E0929402F0929502009396021093970216
:1032300004E0402E512C4C0E5D1E18E0612E712CC6
:103240006C0E7D1EB2E08B2E912C8C0E9D1EA3E089
:10325000AA2EB12CAC0EBD1E6E010894C11CD11C4F
:1032600080E090E0B201A3019601840175010E9403
:10327000C2138823F1F08A81882391F78B818823F8
:1032800079F781E02B960FB6F894DEBF0FBECDBF65
:10329000CF91DF911F910F91FF90EF90DF90CF9032
:1032A000BF90AF909F908F907F906F905F904F9066
:1032B00008950E940618882399F6E4CF6091980239
:1032C0007091990280919A0290919B022091A402A0
:1032D0003091A5024091A6025091A7029BCF2F9258
:1032E0003F924F925F926F927F928F929F92AF9296
:1032F000BF92CF92DF92EF92FF920F931F931B0129
:103300002C01611571058105910509F481C060905A
:103310007002709071028090720290907302A0907F
:103320009802B0909902C0909A02D0909B0262508D
:10333000704080409040A40193010E942F1B9B018C
:10334000AC0160916C0270916D0280916E0290915F
:103350006F02620F731F841F951FA60195010E94C3
:103360002F1B7B018C0160938002709381028093FC
:10337000820290938302C601B501A40193010E94C9
:103380002F1BE60EF71E081F191FE0929402F09201
:103390009502009396021093970220928802309231
:1033A000890240928A0250928B0220928C023092C3
:1033B0008D0240928E0250928F02809180029091F5
:1033C0008102A0918202B091830280938402909343
:1033D0008502A0938602B093870280939002909317
:1033E0009102A0939202B09393020E94AC181F9195
:1033F0000F91FF90EF90DF90CF90BF90AF909F9094
:103400008F907F906F905F904F903F902F90089596
:10341000E090AC02F090AD020091AE021091AF02CC
:10342000E0928002F0928102009382021093830264
:10343000609198027091990280919A0290919B02FA
:103440002091A4023091A5024091A6025091A702BA
:103450000E942F1BE60EF71E081F191FE092940210
:10346000F0929502009396021093970296CFD9D0CE
:1034700080F09F3740F491110EF4EBC060E070E0F3
:1034800080E89FE3089526F01B16611D711D811DC4
:103490007DC097C0ACD088F09F5790F0B92F992786
:1034A000B751A0F0D1F0660F771F881F991F1AF04F
:1034B000BA95C9F712C0B13081F0CAD0B1E0089511
:1034C000C7C0672F782F8827B85F39F0B93FCCF392
:1034D000869577956795B395D9F73EF49095809545
:1034E000709561957F4F8F4F9F4F0895E89409C065
:1034F00097FB3EF490958095709561957F4F8F4F27
:103500009F4F9923A9F0F92F96E9BB279395F6953C
:10351000879577956795B795F111F8CFFAF4BB0FBA
:1035200011F460FF1BC06F5F7F4F8F4F9F4F16C01E
:10353000882311F096E911C0772321F09EE8872FA8
:10354000762F05C0662371F096E8862F70E060E064
:103550002AF09A95660F771F881FDAF7880F9695DD
:10356000879597F908955DD080F09F3740F49111C9
:103570000EF06FC060E070E080E89FEB089526F4E5
:103580001B16611D711D811D01C01BC0882371F4B4
:10359000772321F09850872B762F07C0662311F4EC
:1035A00099270DC09051862B70E060E02AF09A9523
:1035B000660F771F881FDAF7880F9695879597F91A
:1035C00008959F3F31F0915020F487957795679546
:1035D000B795880F911D9695879597F9089557FD92
:1035E0009058440F551F59F05F3F71F04795880F71
:1035F00097FB991F61F09F3F79F087950895121608
:1036000013061406551FF2CF4695F1DF08C01616B3
:1036100017061806991FF1CF869571056105089464
:103620000895E5DFA0F0BEE7B91788F4BB279F38FF
:1036300060F41616B11D672F782F8827985FF7CF93
:10364000869577956795B11D93959639C8F308953A
:10365000E894BB2766277727CB0197F90895629FE7
:10366000D001739FF001829FE00DF11D649FE00D7A
:10367000F11D929FF00D839FF00D749FF00D659FDB
:10368000F00D9927729FB00DE11DF91F639FB00DDA
:10369000E11DF91FBD01CF0111240895A1E21A2EE9
:1036A000AA1BBB1BFD010DC0AA1FBB1FEE1FFF1FE6
:1036B000A217B307E407F50720F0A21BB30BE40B36
:1036C000F50B661F771F881F991F1A9469F760957D
:1036D0007095809590959B01AC01BD01CF01089537
:1036E000AEE0B0E0E6E7FBE10C941F1E0D891E89F9
:1036F00086E08C831A8309838FEF9FE79E838D83F7
:103700009E01275E3F4FCE0101966F89788DA901FA
:103710000E94941B2F813885020F131FF80110821D
:103720002E96E4E00C943B1EABE0B0E0EAE9FBE14E
:103730000C94111E3C012B015A01FC0117821682C8
:10374000838181FD03C06FEF7FEFC6C19AE0892EB0
:103750001E010894211C311CF3012381F20123FD79
:10376000859123FF81912F01882309F4B2C185320D
:1037700039F423FD859123FF81912F01853229F4AE
:1037800090E0B3010E94871DE7CF982FFF24EE241D
:103790009924FFE1FF15D0F09B3269F09C3228F4A8
:1037A000903259F0933291F40EC09D3249F090332B
:1037B00069F441E024C052E0F52A84E0F82A28C0E8
:1037C00098E0F92A25C0E0E1FE2A22C0F7FC29C0D2
:1037D000892F80538A3070F4F6FE05C0989C902C97
:1037E0001124980E15C0E89CE02C1124E80EF0E29C
:1037F000FF2A0EC09E3229F4F6FC6BC140E4F42A85
:1038000007C09C3619F450E8F52A02C0983649F4EE
:10381000F20123FD959123FF91912F01992309F046
:10382000B8CF892F8554833018F08052833038F414
:1038300044E050E0A40EB51E5FE359830FC09336F9
:1038400031F0933779F0933509F056C020C0F50177
:103850008081898342E050E0A40EB51E610101E041
:1038600010E012C0F501C080D180F6FC03C06FEFFC
:103870007FEF02C0692D70E042E050E0A40EB51E5B
:10388000C6010E947C1D8C015FE7F52214C0F50182
:10389000C080D180F6FC03C06FEF7FEF02C0692DBE
:1038A00070E042E050E0A40EB51EC6010E94711DFA
:1038B0008C0150E8F52AF3FE07C01AC080E290E0C0
:1038C000B3010E94871DEA948E2D90E00817190716
:1038D000A8F30EC0F601F7FC8591F7FE81916F0108
:1038E00090E0B3010E94871DE110EA94015010405E
:1038F0000115110579F7EAC0943611F0993669F58A
:10390000F7FE08C0F501208131814281538184E0B6
:1039100090E00AC0F501808191819C01442737FD28
:103920004095542F82E090E0A80EB91E9FE6F92240
:1039300057FF09C050954095309521953F4F4F4F07
:103940005F4FE0E8FE2ACA01B901A1012AE030E098
:103950000E94B31DD82ED21840C0953729F41F2DD0
:103960001F7E2AE030E01DC01F2D197F9F3661F0B9
:10397000903720F4983509F0ACC00FC0903739F07B
:10398000983709F0A6C004C028E030E00AC01061F2
:1039900014FD146020E130E004C014FD166020E145
:1039A00032E017FF08C0F501608171818281938147
:1039B00044E050E008C0F50180819181BC0180E0C5
:1039C00090E042E050E0A40EB51EA1010E94B31D9C
:1039D000D82ED2188FE7F82EF122F6FE0BC05EEF3C
:1039E000F522D91438F4F4FE07C0F2FC05C08FEEBE
:1039F000F82202C01D2D01C0192DF4FE0DC0FE01DC
:103A0000ED0DF11D8081803319F499EEF92208C083
:103A10001F5FF2FE05C003C08F2D867809F01F5F7F
:103A20000F2DF3FC14C0F0FE0FC01E1510F09D2CDE
:103A30000BC09D2C9E0C911A1E2D06C080E290E0BA
:103A4000B3010E94871D1F5F1E15C0F304C01E1521
:103A500010F4E11A01C0EE2404FF0FC080E390E0EF
:103A6000B3010E94871D02FF1DC001FD03C088E74E
:103A700090E00EC088E590E00BC0802F867891F032
:103A800001FF02C08BE201C080E2F7FC8DE290E012
:103A9000B3010E94871D06C080E390E0B3010E943D
:103AA000871D9A94D914C0F3DA94F101ED0DF11D3C
:103AB000808190E0B3010E94871DDD20A9F706C038
:103AC00080E290E0B3010E94871DEA94EE20C1F7E6
:103AD00043CEF30166817781CB012B96E2E10C9412
:103AE0002D1EFC010590615070400110D8F78095A3
:103AF00090958E0F9F1F0895FC01615070400190BA
:103B00000110D8F7809590958E0F9F1F08950F9301
:103B10001F93CF93DF938C01EB018B8181FF1BC03F
:103B200082FF0DC02E813F818C819D81281739072E
:103B300064F4E881F9810193F983E88306C0E8859C
:103B4000F985802F0995892B31F48E819F8101960B
:103B50009F838E8302C00FEF1FEFC801DF91CF91CB
:103B60001F910F910895FA01AA27283051F12031B1
:103B700081F1E8946F936E7F6E5F7F4F8F4F9F4F01
:103B8000AF4FB1E03ED0B4E03CD0670F781F891F43
:103B90009A1FA11D680F791F8A1F911DA11D6A0F11
:103BA000711D811D911DA11D20D009F468943F91C4
:103BB0002AE0269F11243019305D3193DEF6CF01C3
:103BC0000895462F4770405D4193B3E00FD0C9F789
:103BD000F6CF462F4F70405D4A3318F0495D31FDF6
:103BE0004052419302D0A9F7EACFB4E0A695979549
:103BF000879577956795BA95C9F70097610571051F
:103C000008959B01AC010A2E069457954795379568
:103C10002795BA95C9F7620F731F841F951FA01DC2
:103C200008952F923F924F925F926F927F928F9260
:103C30009F92AF92BF92CF92DF92EF92FF920F933B
:103C40001F93CF93DF93CDB7DEB7CA1BDB0B0FB645
:103C5000F894DEBF0FBECDBF09942A883988488802
:103C60005F846E847D848C849B84AA84B984C88498
:103C7000DF80EE80FD800C811B81AA81B981CE0F8F
:103C8000D11D0FB6F894DEBF0FBECDBFED01089574
:043C9000F894FFCFD6
:103C9400C1EBEEEA3A2575205B25755D00C1EBEEBC
:103CA400EA3A2575205B305D00C2FBEFEEEBEDE5F3
:103CB400EDEE3A25692025250025303578203D2074
:103CC4005B25303278202C20253032785D00005B73
:103CD400253032753A253035755D20D4E0E9EB00A6
:103CE4005B253032753A253035755D20CFE0EFEA3B
:103CF400E0003E20CCE0E3EDE8F2EEF4EEED2078D7
:103D040031203C003E20CCE0E3EDE8F2EEF4EEEDB1
:103D1400207832203C003E20CCE0E3EDE8F2EEF4E3
:103D2400EEED207834203C003E2020D2E5F1F22054
:103D3400EFE0ECFFF2E820203C0000256920CCC134
:083D440000000200FFFFFFFF79
:00000001FF
